S00D000044726F6E652E737265631F
S1130000F4C0000011C10000F7C700000DC10000DA
S11300100BC1000009C1000007C1000005C10000B8
S113002003C1000001C10000FFC00000FDC00000CA
S1130030FBC00000F9C000000C94592F0C94952FBC
S11300400C94D12F0C940D300C9449300C948530C1
S11300500C94C1300C94FD300C9439310C947531EE
S1130060E3C000000C94D2280C941A29DDC00000CF
S1130070DBC00000D9C00000D7C00000D5C000001C
S1130080D3C00000D1C00000CFC00000CDC000002C
S1130090CBC00000C9C00000C7C00000C5C000003C
S11300A0C3C00000C1C00000BFC00000BDC000004C
S11300B0BBC00000B9C00000B7C000000C941933E5
S11300C00C9455330C9491330C94CD330C94093423
S11300D00C944534A9C00000A7C00000A5C00000CE
S11300E0A3C00000A1C000009FC000009DC000008C
S11300F09BC0000099C0000097C0000095C000009C
S113010093C0000091C000008FC000008DC00000AB
S11301108BC0000089C0000087C0000085C00000BB
S113012083C0000081C000007FC000007DC00000CB
S11301307BC000000C94B1310C94ED310C94293245
S11301400C9465320C94A1320C94DD326DC0000025
S11301506BC0000069C0000067C0000065C00000FB
S113016063C0000061C000005FC000005DC000000B
S11301705BC0000059C0000057C0000055C000001B
S113018053C0000051C000004FC000004DC000002B
S11301904BC0000049C0000047C0000045C000003B
S11301A00C94854741C000003FC000003DC00000E2
S11301B00C9481340C94BD340C94F9340C9435357E
S11301C00C9471350C94AD35474F4F440042414473
S11301D0004445425547205541525420494E495404
S11301E03A2000000E060C04000011241FBECFEFBD
S11301F0DFE2DEBFCDBF16E2A0E0B0E2E2E7F1E964
S113020000E00BBF02C007900D92AE37B107D9F7DB
S113021029E2AEE7B6E201C01D92A933B207E1F7C5
S11302200E9438410C94B748EBCECF93DF931F92D2
S1130230CDB7DEB78FE390E0FC0180818983F89429
S113024089810F90DF91CF910895CF93DF931F920F
S1130250CDB7DEB789838FE390E02981FC01208349
S11302600F90DF91CF910895CF93DF93CDB7DEB791
S113027080E098E4A8EEB1E0BC01CD01DF91CF911C
S11302800895CF93DF931F92CDB7DEB71982ECDFC9
S1130290DC01CB012981222F30E0022E04C0B69567
S11302A0A795979587950A94D2F7BC01CD010F9035
S11302B0DF91CF910895CF93DF93CDB7DEB7E1DF20
S11302C0DC01CB01BC01CD01DF91CF910895CF9327
S11302D0DF93CDB7DEB7EFDFDC01CB01BC01CD018D
S11302E0DF91CF910895CF93DF9300D000D0CDB7A5
S11302F0DEB78A839B836C8398DF89838A819B81A1
S1130300FC018081282F8C81882F90E0880F991F11
S1130310880F991F822B282F8A819B81FC012083BF
S1130320898193DF2496CDBFDEBFDF91CF910895FD
S1130330CF93DF9300D01F92CDB7DEB789839A8322
S11303406B8389819A81FC0196818B818923239611
S1130350CDBFDEBFDF91CF910895CF93DF9300D05F
S11303601F92CDB7DEB789839A836B8389819A8183
S11303702B81FC0126832396CDBFDEBFDF91CF9175
S11303800895CF93DF9300D01F92CDB7DEB7898352
S11303909A836B8389819A816B81CADF982F8B81C1
S11303A09817C1F789819A816B81D7DF2396CDBFD6
S11303B0DEBFDF91CF910895CF93DF93CDB7DEB742
S11303C02D97CDBFDEBF888799874A875B876C8767
S11303D07D877DDFDC01CB018A839B83AC83BD8376
S11303E08A819B81AC81BD812A853B854C855D8555
S11303F0BC01CD010E94F347DA01C9018E839F83BA
S11304008E819F818530910510F4198233C08E81CD
S11304109F818930910518F481E089832BC08E81F6
S11304209F818131910518F482E0898323C08E81F4
S11304309F818132910518F483E089831BC08E81EA
S11304409F818134910518F484E0898313C08E81DF
S11304509F818138910518F485E089830BC08E81D2
S11304609F81813021E0920718F486E0898302C0DD
S113047087E08983888599852981FC0123832D96CA
S1130480CDBFDEBFDF91CF910895CF93DF93CDB77A
S1130490DEB72597CDBFDEBF89839A836B834C83F8
S11304A02D8389819A81FC018081282F297E89816D
S11304B09A81FC01208389819A81FC0190812C819D
S11304C08B81822B292F282B89819A81FC012083FF
S11304D089819A81FC018181282F2F7C89819A81CD
S11304E0FC01218389819A81FC0191818D81292FCD
S11304F0282B89819A81FC0121832596CDBFDEBFFB
S1130500DF91CF910895CF93DF93CDB7DEB72597D1
S1130510CDBFDEBF89839A836B834C832D838B810C
S1130520882F90E0009721F08230910581F02BC054
S113053089819A81FC018081282F277F89819A8172
S1130540FC01208389819A81FC0112821CC089816B
S11305509A81FC018081282F277F89819A81FC015F
S113056020838D81882F90E0880F991F880F991F11
S1130570880F991F982F8C81892B282F89819A8124
S1130580FC01228300002596CDBFDEBFDF91CF9111
S11305900895CF93DF931F92CDB7DEB78983898106
S11305A0882F90E08830910561F18930910584F4B9
S11305B08130910501F1823091051CF40097C9F056
S11305C02AC082309105C9F084309105C1F023C05E
S11305D080329105D1F08132910524F48031910566
S11305E091F019C08034910591F08F3F910589F005
S11305F012C08CE111C080E00FC084E00DC088E01F
S11306000BC08CE009C080E107C084E105C088E12B
S113061003C080E001C080E00F90DF91CF91089586
S1130620CF93DF93CDB7DEB72597CDBFDEBF8983E8
S11306309A836B834C832D838B81803178F08981FD
S11306409A81FC0110828B818051282F220F220F66
S1130650220F89819A81FC01218349C08C818830D1
S113066079F489819A8121E0FC0120838B81282FF0
S1130670220F220F220F89819A81FC01218337C026
S11306808C818430B8F489819A8122E0FC01208332
S11306908B81882F90E0880F991F880F991F880FEE
S11306A0991F982F8C81892B282F89819A81FC018D
S11306B021831DC08C818830D0F48D816ADF282F7E
S11306C0236089819A81FC0120838B81882F90E0AB
S11306D0880F991F880F991F880F991F982F8C8155
S11306E08450892B282F89819A81FC0121832596A6
S11306F0CDBFDEBFDF91CF910895CF93DF93CDB708
S1130700DEB76EE776E280E092E00E94802C44E857
S113071056E261E080E092E00E94122D20E240E087
S113072060E08EE796E2B1DE20E041E060E08EE733
S113073096E2E9DE40E251EA67E070E08EE796E295
S11307403BDE6EE776E280E092E00E94172CDF91B8
S1130750CF910895CF93DF931F92CDB7DEB78983EE
S113076021E048E0698184E896E25ADF44E856E2F1
S113077061E080E092E00E94C52C0F90DF91CF9160
S11307800895CF93DF9300D000D0CDB7DEB761E0FA
S113079080E092E0A8DD61E080E092E0F2DD80E0BC
S11307A092E089839A8381E08C831B8289819A8178
S11307B09C01205E3F4F8B81882F90E0880F991F0A
S11307C0880F991F880F991F820F931FFC01848142
S11307D095812496CDBFDEBFDF91CF910895CF934D
S11307E0DF9300D01F92CDB7DEB78B838B81B2DF4E
S11307F0C8DF89839A8389819A812396CDBFDEBF1E
S1130800DF91CF910895CF93DF93CDB7DEB780E02A
S113081092E00E947F2BDF91CF910895CF93DF93D5
S1130820CDB7DEB7DF91CF910895CF93DF93CDB7E6
S1130830DEB72A97CDBFDEBF89876A87898589831A
S11308408A858A8389818B838B818C838C8186952D
S1130850869586958D838D81882F90E0880F991FCA
S113086082959295907F9827807F98279A5F8E83B0
S11308709F8380EB90E0298128872885222F30E010
S1130880A9014770552721E030E0042E02C0220F51
S1130890331F0A94E2F7FC0120838E819F812A8111
S11308A0FC01208B2A96CDBFDEBFDF91CF91089546
S11308B0CF93DF93CDB7DEB72B97CDBFDEBF8A874B
S11308C06B878A8589838B858A8389818B838B81D6
S11308D08C838C818695869586958D838D81882FD2
S11308E090E0880F991F82959295907F9827807F3A
S11308F098279A5F8E839F838A818130A9F48981A6
S113090088878885882F90E09C012770332781E0B1
S113091090E002C0880F991F2A95E2F7282F8E8154
S11309209F81FC01218317C08A818823A1F48981D6
S113093089878985882F90E09C012770332781E07F
S113094090E002C0880F991F2A95E2F7282F8E8124
S11309509F81FC0122832B96CDBFDEBFDF91CF9117
S11309600895CF93DF93CDB7DEB72B97CDBFDEBF0E
S11309708A876B878A8589838B858A8389818B8320
S11309808B818C838C818695869586958D838D81CC
S1130990882F90E0880F991F82959295907F9827D1
S11309A0807F98279A5F8E839F838A818823A9F00A
S11309B0898188878885882F90E09C012770332758
S11309C081E090E002C0880F991F2A95E2F7282F52
S11309D08E819F81FC01258314C089818987898543
S11309E0882F90E09C012770332781E090E002C0BB
S11309F0880F991F2A95E2F7282F8E819F81FC0189
S1130A0026832B96CDBFDEBFDF91CF910895CF9380
S1130A10DF93CDB7DEB702DF61E081E1A2DF61E001
S1130A2081E146DF60E281E100DF60E080E140DFF8
S1130A3068E180E1FADE60E083E03ADF60E083E0D1
S1130A40F4DE60E089E034DF68E189E0EEDE60E056
S1130A508DE02EDF68E18DE0E8DE60E08BE028DFEA
S1130A6068E18BE0E2DE60E081E022DF68E181E0C2
S1130A70DCDE60E085E01CDF68E185E0D6DE60E076
S1130A808CE216DF68E18CE2D0DE60E084E010DF07
S1130A9068E184E0CADE60E087E00ADF68E187E0BD
S1130AA0C4DE60E08AE204DF60E18AE2BEDE60E088
S1130AB08DE2FEDE68E18DE2B8DE60E08FE2F8DE12
S1130AC068E18FE2B2DE60E08EE2F2DE68E18EE29F
S1130AD0ACDE60E082E0ECDE68E182E0A6DE60E0AD
S1130AE08CE0E6DE68E18CE0A0DE60E08DE1E0DE33
S1130AF068E18DE19ADE60E08CE1DADE68E18CE1A8
S1130B0094DE60E086E0D4DE60E086E08EDE60E0C5
S1130B1088E0CEDE60E088E088DE60E08EE0C8DE5B
S1130B2060E08EE082DE60E08FE0C2DE60E08FE0B5
S1130B307CDE61E080E215DF61E080E2B9DE60E046
S1130B4080E273DE61E088E20CDF61E088E2B0DE1F
S1130B5060E088E26ADE60E084E203DF60E084E271
S1130B60A7DE60E084E261DE61E081E2A1DE60E0B4
S1130B7081E25BDE61E083E2F4DE61E083E298DE41
S1130B8060E083E252DE61E082E2EBDE60E082E27A
S1130B908FDE60E082E249DE60E085E2E2DE61E071
S1130BA085E286DE60E085E240DE61E089E2D9DE4E
S1130BB061E089E27DDE60E089E237DE61E088E1C0
S1130BC0D0DE61E088E174DE60E088E12EDE61E081
S1130BD089E1C7DE61E089E16BDE60E089E125DE61
S1130BE060E08AE065DE68E18AE01FDE61E083E1BF
S1130BF0B8DE61E083E15CDE60E083E116DE61E0A3
S1130C0082E1AFDE60E082E153DE60E082E10DDE8E
S1130C1061E087E2A6DE61E087E24ADE60E087E227
S1130C2004DE61E08BE19DDE61E08BE141DE60E0AA
S1130C308BE1FBDD60E08AE13BDE60E08AE1F5DD2B
S1130C4060E08FE135DE60E18FE1EFDD60E084E1BB
S1130C502FDE60E184E1E9DD60E085E129DE60E129
S1130C6085E1E3DD60E086E123DE60E186E1DDDD50
S1130C7060E087E11DDE60E187E1D7DDDF91CF91A0
S1130C800895CF93DF931F92CDB7DEB78FE390E043
S1130C90FC0180818983F89489810F90DF91CF9141
S1130CA00895CF93DF931F92CDB7DEB789838FE387
S1130CB090E02981FC0120830F90DF91CF9108956A
S1130CC0CF93DF93CDB7DEB72A97CDBFDEBF898739
S1130CD06A87898589838A858A8389818B838B81C5
S1130CE08C838C818695869586958D838D81882FBE
S1130CF090E0880F991F82959295907F9827807F26
S1130D0098279A5F8E839F8380EB90E029812887C0
S1130D102885222F30E0A9014770552721E030E0D3
S1130D20042E02C0220F331F0A94E2F7FC01208331
S1130D308E819F812A81FC01208B2A96CDBFDEBF44
S1130D40DF91CF910895CF93DF93CDB7DEB7289786
S1130D50CDBFDEBF88878885898389818A838A811C
S1130D608B838B818695869586958C838C81882F41
S1130D7090E0880F991F82959295907F9827807FA5
S1130D8098279A5F8D839E838D819E81FC01408587
S1130D9089818F838F81882F90E09C01277033276E
S1130DA081E090E0022E02C0880F991F0A94E2F7B6
S1130DB0942F982381E0992309F480E02896CDBFED
S1130DC0DEBFDF91CF910895CF93DF93CDB7DEB728
S1130DD061E089E790E00E945F2DFFCF61507109C7
S1130DE081099109D9F70895CF93DF931F92CDB765
S1130DF0DEB760E180E164DF6AE670E080E090E005
S1130E00EDDF80E1A0DF898360E080E159DF898143
S1130E100F90DF91CF910895CF93DF93CDB7DEB7D5
S1130E202997CDBFDEBF8E836F83488759870E9481
S1130E3051408D8319821A821B828F81882339F055
S1130E4081E08B838B818A838A81898357C08091D7
S1130E508D2290918E22288539852817390790F59F
S1130E601C8217C040E060E081E00E949B256AEA92
S1130E7076E480E190E0B2DF40E060E080E00E9450
S1130E809B256AEA76E480E190E0A8DF8C818F5F9D
S1130E908C83809193229C81981720F3809154280D
S1130EA0881F8827881F909155289F73990F892B35
S1130EB0882F90E021E0009709F420E0822F0E941F
S1130EC091231CC080918F2290919022288539858E
S1130ED02817390718F481E0898310C08091912282
S1130EE090919222288539852817390728F481E0C2
S1130EF08A838A81898302C081E08B839D8181E01A
S1130F008927882351F09E8181E08927882329F04D
S1130F101B828B818A838A8189834B816A8189813F
S1130F200E949B252996CDBFDEBFDF91CF91089506
S1130F30CF93DF93CDB7DEB72A97CDBFDEBFA1DE57
S1130F4089838AE496E021E0FC01208380E18A839E
S1130F5081E08B838A818C838C818D838D818695BE
S1130F60869586958E838E81882F90E0880F991FB1
S1130F7082959295907F9827807F98279A5F8F8398
S1130F8098877FDE898780EB90E02A812A872A85EB
S1130F90222F30E0A9014770552721E030E002C03C
S1130FA0220F331F4A95E2F7FC0120838F81988535
S1130FB0FC018089282F287F8F819885FC01208B54
S1130FC08F819885FC018089982F8B818770892B6C
S1130FD0282F8F819885FC01208B898562DE89E426
S1130FE096E022E0FC01208389815BDE2A96CDBF56
S1130FF0DEBFDF91CF9108951F920F9200903F00C2
S11310000F92112400903B000F922F933F934F9324
S11310105F936F937F938F939F93AF93BF93EF935C
S1131020FF93CF93DF931F92CDB7DEB72ADE898378
S11310308CE496E0FC018081882F90E081709927F0
S1131040009729F08CE496E021E0FC01208341E044
S113105061E081E00E949B2588E490E0FC018081AE
S1131060882F90E08E7099278430910551F488E49C
S113107090E028E430E0F90120812E7FFC012083F8
S1131080A3DE89810EDE0F90DF91CF91FF91EF9166
S1131090BF91AF919F918F917F916F915F914F918C
S11310A03F912F910F9000923B000F9000923F00D0
S11310B00F901F901895CF93DF93CDB7DEB761E003
S11310C089E790E00E945F2DFFCF6150710981098B
S11310D09109D9F70895CF93DF9300D0CDB7DEB748
S11310E080E00E94FD2419821A8219C040E060E069
S11310F081E00E949B256AEA76E480E190E0E5DFE6
S113110040E060E080E00E949B256AEA76E480E1AA
S113111090E0DBDF89819A81019689839A838981B2
S11311209A818330910514F30E94653F05D00F9096
S11311300F90DF91CF9108950F931F93CF93DF9377
S1131140CDB7DEB72C97CDBFDEBF40EF59E462E0E8
S113115070E087E598E20E94122619821A821B82A7
S11311600E949A2988E03FD1082F10E089E03BD102
S1131170882F90E080239123009731F06AEA70EB86
S113118088E290E0A2DF97DF87E598E20E943A26A2
S11311908823E1F087E598E20E94712640E060E050
S11311A080E00E949B2580915428881F8827881FEF
S11311B0909155289F73990F892B882F90E021E0F7
S11311C0009709F420E0822F0E94912380E00BD144
S11311D0882309F03FC081E006D1882309F03AC092
S11311E082E001D1882309F035C083E0FCD0882354
S11311F009F030C084E0F7D0882361F585E0F3D0AE
S1131200882341F586E0EFD0882321F587E0EBD0F1
S1131210882301F588E0E7D08823E1F489E0E3D06E
S11312208823C1F48BE0DFD08823A1F48AE0DBD0EB
S1131230882381F48DE0D7D0882361F48CE0D3D067
S1131240882341F48EE0CFD0882321F48FE0CBD0E3
S1131250882311F081E08A831C827AC08C81882FD4
S113126090E0880F991F9C01220F331F220F331F18
S1131270220F331F281B390BC9018A5A9F4DFC01C9
S11312808081ADDA8D839E838C81882F90E0880FD6
S1131290991F9C01220F331F220F331F220F331F6C
S11312A0281B390BC901895A9F4DFC01808197DAAB
S11312B08F8398878C81882F90E0880F991F8050A6
S11312C0904EFC01808191819E01275F3F4FAE01CA
S11312D04B5F5F4F64E972E20E94C5208F8198855D
S11312E09C018D819E81B9010E945F2960E08DE798
S11312F090E20E9480282B853C8589859A85B901D6
S11313000E945F2980E890E20E94A7288B859C8533
S113131099232CF481E0898381E08A8316C08B852C
S11313209C85181619061CF481E08B830EC08985F0
S11313309A85181619061CF481E0898306C08985EC
S11313409A85992314F481E08A838C818F5F8C833E
S11313508C81823008F482CF4B816A8189810E941A
S11313609B25FBCECF93DF93CDB7DEB72897CDBFB8
S1131370DEBF88878885898389818A838A818B8374
S11313808B818695869586958C838C81882F90E0B9
S1131390880F991F82959295907F9827807F982730
S11313A09A5F8D839E838D819E81FC014085898116
S11313B08F838F81882F90E09C012770332781E0F1
S11313C090E0022E02C0880F991F0A94E2F7942F2E
S11313D0982381E0992309F480E02896CDBFDEBFED
S11313E0DF91CF910895CF93DF931F92CDB7DEB7EE
S11313F089838981882F90E0880F991F880F991F0E
S11314008C5F9F4DFC018081ADDF882381F0898151
S1131410882F90E0880F991F880F991F895F9F4D2F
S1131420FC01908181E0992389F480E00FC08981D7
S1131430882F90E0880F991F880F991F895F9F4D0F
S1131440FC01908181E0992309F080E00F90DF9105
S1131450CF910895CF93DF9300D0CDB7DEB78983C2
S11314609A8389819A8180938726909388260E9403
S113147072400F900F90DF91CF910895CF93DF9337
S113148000D000D0CDB7DEB78B836C838C818130E4
S1131490B9F440918726509188268B81282F30E01B
S11314A0C901880F991F880F991F880F991F820FF0
S11314B0931F840F951F0696FC018081898316C0B3
S11314C040918726509188268B81282F30E0C901CE
S11314D0880F991F880F991F880F991F820F931FD8
S11314E0840F951F0496FC01808189838981882358
S11314F009F43FC089810E94842081E890E20E941F
S11315002D3F80E00E94E83E8CE20E941A3F8981D0
S11315100E94E83E1A8209C08CE20E941A3F80E0D1
S11315200E94E83E8A818F5F8A838A818530A0F396
S11315308DE00E941A3F8AE00E941A3F81E890E2FF
S11315400E942D3F80E00E94E83E1A8209C08CE28E
S11315500E941A3F80E00E94E83E8A818F5F8A835E
S11315608A818630A0F38DE00E941A3F8AE00E94AF
S11315701A3F2496CDBFDEBFDF91CF910895CF935C
S1131580DF9300D0CDB7DEB789839A8389819A81AE
S1131590FC01148289819A81FC01228189819A81CA
S11315A0FC0123830F900F90DF91CF910895CF9387
S11315B0DF931F92CDB7DEB78FE390E0FC0180810B
S11315C08983F89489810F90DF91CF910895CF9307
S11315D0DF931F92CDB7DEB789838FE390E0298133
S11315E0FC0120830F90DF91CF910895CF93DF9377
S11315F0CDB7DEB72597CDBFDEBF89839A836B83D2
S11316007C834D8389819A812B813C81FC012083D9
S1131610318389819A812D81FC01258389819A8175
S1131620FC01128289819A81AADF2596CDBFDEBF93
S1131630DF91CF910895CF93DF93CDB7DEB7259790
S1131640CDBFDEBF8B839C836D831982B0DF8A8319
S11316508B819C81FC0124818B819C81FC0185818F
S1131660281780F58B819C81FC01208131818B813D
S11316709C81FC014281842F90E0820F931F2D8175
S1131680FC012083242F2F5F8B819C81FC0122830A
S11316908B819C81FC018481282F2F5F8B819C810D
S11316A0FC0124838B819C81FC0122818B819C81A0
S11316B0FC018581281720F08B819C81FC0112821A
S11316C081E089838A8183DF89812596CDBFDEBF4E
S11316D0DF91CF910895CF93DF93CDB7DEB72697EF
S11316E0CDBFDEBF8B839C836D837E8319825FDFD6
S11316F08A838B819C81FC018481882399F18B816D
S11317009C81FC01208131818B819C81FC0143817E
S1131710842F90E0820F931FFC0120818D819E8194
S1131720FC012083242F2F5F8B819C81FC01238368
S11317308B819C81FC018481282F21508B819C8189
S1131740FC0124838B819C81FC0123818B819C81FE
S1131750FC018581281720F08B819C81FC01138278
S113176081E089838A8133DF89812696CDBFDEBFFC
S1131770DF91CF910895CF93DF93CDB7DEB726974E
S1131780CDBFDEBF8A839B836C837D834E831982A6
S113179003C089818F5F898399818E81981768F44A
S11317A08981882F90E02C813D81280F391F8A81FF
S11317B09B81B90190DF882361F789812696CDBF8B
S11317C0DEBFDF91CF910895CF93DF93CDB7DEB71E
S11317D02A97CDBFDEBF8E839F83688779874A8728
S11317E01B82E5DE8C838E819F81FC0183818A8349
S11317F08E819F81FC0194818A85981728F48E81BB
S11318009F81FC01848101C08A858D8319821FC058
S11318108E819F81FC01208131818A81882F90E013
S1131820820F931FFC018081882319F481E08B834C
S113183012C08A818F5F8A838E819F81FC0195818A
S11318408A81891708F01A8289818F5F8983998137
S11318508D819817E8F28C81BADE8B81282F30E0D5
S11318608981882F90E0AC014F5F5F4F8A85882F74
S113187090E061E0481759070CF060E0862F90E093
S11318808223932321E0009709F420E02B838B81AA
S1131890882349F08981482F4F5F288539858E81B7
S11318A09F81B90168DF8B812A96CDBFDEBFDF91AE
S11318B0CF910895CF93DF93CDB7DEB72B97CDBFEC
S11318C0DEBF8A876B878A8589838B858A83898132
S11318D08B838B818C838C818695869586958D836D
S11318E08D81882F90E0880F991F82959295907F23
S11318F09827807F98279A5F8E839F838A81882385
S1131900A9F0898188878885882F90E09C012770B9
S1131910332781E090E002C0880F991F2A95E2F7EF
S1131920282F8E819F81FC01258314C0898189879A
S11319308985882F90E09C012770332781E090E00F
S113194002C0880F991F2A95E2F7282F8E819F8164
S1131950FC0126832B96CDBFDEBFDF91CF91089586
S1131960CF93DF93CDB7DEB761E089E790E00E94C3
S11319705F2DFFCF6150710981099109D9F708954D
S1131980CF93DF93CDB7DEB72597CDBFDEBF898375
S11319906A837B834C835D838981282F2F708C819C
S11319A09D81FC012083898182958F70282F8A81F3
S11319B09B81FC0120838C819D81FC0180818A3084
S11319C05CF08C819D81FC018081895A282F8C8157
S11319D09D81FC0120830AC08C819D81FC01808152
S11319E0805D282F8C819D81FC0120838A819B81CD
S11319F0FC0180818A305CF08A819B81FC018081BA
S1131A00895A282F8A819B81FC0120830AC08A81FC
S1131A109B81FC018081805D282F8A819B81FC0150
S1131A2020832596CDBFDEBFDF91CF910895CF935C
S1131A30DF9300D01F92CDB7DEB78A836B838A8190
S1131A4080628A838B8180628B838A81813624F0D1
S1131A508A818755898303C08A81805389838981D8
S1131A608295807F89838B81813634F09B81898143
S1131A70890F8755898305C09B818981890F80538C
S1131A80898389812396CDBFDEBFDF91CF910895ED
S1131A90CF93DF93CDB7DEB7C554D109CDBFDEBF39
S1131AA01A82CE01039660E40E94BB28882309F4BD
S1131AB06FC02B81CE018D5B9F4FFC0120832C8155
S1131AC0CE018D5B9F4FFC012183CE018D5B9F4F27
S1131AD0FC011282CE018D5B9F4FFC01808199270E
S1131AE087FD90958E549F4D0E94B22019823DC06F
S1131AF08981882F90E0880F991F880F991F885635
S1131B009D4DFC01808191819E012D5B3F4FB90168
S1131B100E947648009731F58AEB90E20E94932068
S1131B208981882F90E0880F991F880F991F885604
S1131B309D4DFC01808191810E94B22081E08A83C5
S1131B408981882F90E0880F991F880F991F8656E6
S1131B509D4DFC0120813181CE0103960296F9014D
S1131B60099507C089818F5F898389818B3008F447
S1131B70BFCF9A8181E08927882351F089EC90E2D4
S1131B800E949320CE018D5B9F4F0E94B22013D000
S1131B90CB5BDF4FCDBFDEBFDF91CF910895CF93F5
S1131BA0DF93CDB7DEB761E08EED90E20E9480282E
S1131BB0DF91CF910895CF93DF93CDB7DEB761E086
S1131BC081EE90E20E948028DF91CF910895CF9317
S1131BD0DF93CDB7DEB72597CDBFDEBF8C839D8362
S1131BE089E896E239D2198219C08981882F90E058
S1131BF08757994DDC01EC919E012D5F3F4FCE013B
S1131C000296A901BC018E2FBBDE8A810E9467283F
S1131C108B810E94672889818F5F898389818830BD
S1131C2020F380E00E946728BADF10924E272596A1
S1131C30CDBFDEBFDF91CF910895CF93DF9300D066
S1131C40CDB7DEB789839A8389819A81FC0180812B
S1131C50882371F089819A810196FC01808188230F
S1131C6039F089819A810296FC018081882311F0E0
S1131C70A2DF0EC089819A810196FC0120818981AD
S1131C809A81FC018081622FD2DE80934E2787DF08
S1131C900F900F90DF91CF910895FF920F931F93B0
S1131CA0CF93DF9300D000D0CDB7DEB78B839C8376
S1131CB019828B819C810E947F488A838A81882F24
S1131CC090E081709927009739F175DF34C0F09066
S1131CD04E278F2D90E08C010757194D8981882F4D
S1131CE090E001962B813C81820F931FFC0140817F
S1131CF08981882F90E02B813C81820F931FFC0106
S1131D008081642F94DEF80180838F2D8F5F809310
S1131D104E2789818E5F898399818A81981720F45F
S1131D2080914E27883098F299818A81981711F40E
S1131D3036DF01C040DF2496CDBFDEBFDF91CF91F7
S1131D401F910F91FF900895CF93DF9300D0CDB7EB
S1131D50DEB789839A8389E896E293D120DF1092D3
S1131D604E270F900F90DF91CF910895CF93DF937B
S1131D70CDB7DEB72697CDBFDEBF8D839E838D8121
S1131D809E81DC018C91882371F08D819E81019666
S1131D90FC018081882339F08D819E810296DC01CB
S1131DA08C91882311F007DF34C08D819E810196C8
S1131DB0FC0120818D819E81DC018C91622F37DEB4
S1131DC08A8361E976E28A8171D1198219C0898195
S1131DD0882F90E08F56994DDC01EC919E012C5F89
S1131DE03F4FCE010396A901BC018E2FC9DD8B8123
S1131DF00E9467288C810E94672889818F5F89836C
S1131E0089818D3B20F380E00E946728C8DE109210
S1131E104F272696CDBFDEBFDF91CF910895CF9394
S1131E20DF9300D0CDB7DEB789839A8389819A8105
S1131E30FC018081882371F089819A810196FC01DB
S1131E408081882339F089819A810296FC018081FE
S1131E50882311F0B0DE0EC089819A810196FC01BD
S1131E60208189819A81FC018081622FE0DD809349
S1131E704F2795DE0F900F90DF91CF910895FF9239
S1131E800F931F93CF93DF9300D000D0CDB7DEB76D
S1131E908B839C8319828B819C810E947F488A83D7
S1131EA08A81882F90E081709927009739F183DE29
S1131EB034C0F0904F278F2D90E08C010F56194DB0
S1131EC08981882F90E001962B813C81820F931F9A
S1131ED0FC0140818981882F90E02B813C81820F15
S1131EE0931FFC018081642FA2DDF80180838F2D74
S1131EF08F5F80934F2789818E5F898399818A813F
S1131F00981720F480914F278D3B98F299818A810C
S1131F10981711F444DE01C04EDE2496CDBFDEBF17
S1131F20DF91CF911F910F91FF900895CF93DF938D
S1131F3000D01F92CDB7DEB78A839B838A819B81B1
S1131F40FC018081882371F08A819B810196FC01C8
S1131F508081882339F08A819B810296FC018081EB
S1131F60882311F028DE13C08A819B810196FC012D
S1131F7020818A819B81FC018081622F58DD8983C5
S1131F8061E976E28981BED00ADE10924F2723965A
S1131F90CDBFDEBFDF91CF910895CF93DF9300D003
S1131FA0CDB7DEB789839A83FADD65E570ED80E00D
S1131FB090E0E0DCD5DC0F900F90DF91CF91089595
S1131FC0CF93DF9300D0CDB7DEB789839A83E7DD63
S1131FD065E570ED80E090E0CDDC0E94CE130F90BB
S1131FE00F90DF91CF910895CF93DF9300D0CDB7B9
S1131FF0DEB789839A8361E088E25CDC65ED74E195
S113200080E090E0B7DC60E088E254DC65ED74E1E8
S113201080E090E0AFDC61E088E24CDC65ED74E1E7
S113202080E090E0A7DC60E088E244DC65ED74E1E8
S113203080E090E09FDC61E088E23CDC65ED74E1E7
S113204080E090E097DC84EE90E20E944C3F0F9099
S11320500F90DF91CF910895CF93DF9300D0CDB748
S1132060DEB789839A8389819A8148E050E0BC0174
S113207080E090E00E94BB2D0F900F90DF91CF91F4
S11320800895CF93DF9300D0CDB7DEB789839A83C9
S113209089819A8148E050E0BC0180E090E00E9490
S11320A0182E0F900F90DF91CF910895CF93DF9367
S11320B0CDB7DEB72597CDBFDEBF8B836C837D8321
S11320C080E290E089839A838B81282F30E040EC72
S11320D0429FC001439F900D112429813A81820FB0
S11320E0931F89839A832C813D8189819A814DEB49
S11320F050E0B9010E94BB2D2596CDBFDEBFDF9114
S1132100CF910895CF93DF93CDB7DEB72597CDBF99
S1132110DEBF8B836C837D8380E290E089839A8326
S11321208B81282F30E040EC429FC001439F900DEB
S1132130112429813A81820F931F89839A832C81E8
S11321403D8189819A814DEB50E0B9010E94182E9E
S11321502596CDBFDEBFDF91CF910895CF93DF9356
S11321601F92CDB7DEB7898389818A3031F48AEE34
S113217090E20E94B2200E946B088FE498E26CDF28
S1132180809154288071882349F164EC72E280E0E4
S1132190B9DF69E873E281E0B5DF63E075E282E00C
S11321A0B1DF60EC75E283E0ADDF66E474E284E005
S11321B0A9DF88E0E1E8F3E2AFE4B8E201900D9230
S11321C08A95E1F7809154288F7E809354288FE478
S11321D098E257DF0E943D400E94913F8FEE90E2CB
S11321E00E9493208981805D0E94842086E091E290
S11321F00E9493206CE778E2898158DF0F90DF9189
S1132200CF910895CF93DF931F92CDB7DEB7898323
S11322108981882F90E08530910509F451C086307A
S113222091059CF482309105C9F18330910534F411
S1132230009741F18130910559F160C083309105D7
S113224099F184309105B1F159C08830910509F4B0
S113225043C08930910544F486309105B9F1873043
S1132260910509F43FC04AC08930910509F440C082
S11322708A30910509F042C040E060E080E00E94AD
S11322809B253CC041E060E080E00E949B2536C075
S113229040E060E081E00E949B2530C040E061E0C6
S11322A080E00E949B252AC040E061E081E00E941A
S11322B09B2524C041E060E081E00E949B251EC074
S11322C041E060E080E00E949B2518C040E060E0AF
S11322D081E00E949B2512C040E061E080E00E9402
S11322E09B250CC040E061E081E00E949B2506C074
S11322F041E060E081E00E949B2500000F90DF91A7
S1132300CF910895CF93DF931F92CDB7DEB789E0C5
S11323106AD8882319F08AE0898349C084E063D8A5
S1132320882311F0198243C085E05DD8882319F011
S113233081E089833CC086E056D8882319F082E086
S1132340898335C087E04FD8882319F083E08983D7
S11323502EC08AE048D8882319F084E0898327C0F6
S113236081E041D8882319F085E0898320C083E087
S11323703AD8882319F086E0898319C082E033D8DB
S1132380882319F088E0898312C080E02CD8882340
S113239019F087E089830BC08BE025D8882319F0D6
S11323A089E0898304C0809154288F70898389814E
S11323B029DF89810F90DF91CF910895CF93DF9327
S11323C0CDB7DEB72C97CDBFDEBF8B879C878B85BF
S11323D09C8580935027909351272AE0E7E0F1E20F
S11323E0CE010196DC0101900D922A95E1F72AE0D5
S11323F0CE010196FC01AFE5B8E201900D922A9559
S1132400E1F78AE0EFE5F8E2A9E6B8E201900D927F
S11324108A95E1F70E9486402C96CDBFDEBFDF91FE
S1132420CF910895CF93DF93CDB7DEB79091702805
S113243080916628981761F490917128809167289B
S1132440981731F49091722880916828981751F068
S113245043E050E066E678E280E798E20E946D4847
S113246081E001C080E0DF91CF910895CF93DF93A5
S1132470CDB7DEB790916C2880916228981791F4BB
S113248090916D2880916328981761F490916E283B
S113249080916428981731F490916F288091652871
S11324A0981751F044E050E062E678E28CE698E256
S11324B00E946D4881E001C080E0DF91CF910895D2
S11324C0EF92FF920F931F93CF93DF9300D0CDB77A
S11324D0DEB789836A838A81813031F58981282F27
S11324E030E081E090E0A0E0B0E07C018D0104C028
S11324F0EE0CFF1C001F111F2A95D2F7A8019701AB
S11325008091522790915327A0915427B091552739
S1132510822B932BA42BB52B809352279093532774
S1132520A0935427B09355278A81882341F5898144
S1132530282F30E081E090E0A0E0B0E004C0880FF4
S1132540991FAA1FBB1F2A95D2F79C01AD012095A4
S11325503095409550958091522790915327A091A2
S11325605427B091552782239323A423B523809322
S1132570522790935327A0935427B09355278981CA
S1132580813109F0D1C28091522790915327A091B3
S11325905427B091552780719927AA27BB27009704
S11325A0A105B10591F08091562790915727A091EC
S11325B05827B091592781608093562790935727C5
S11325C0A0935827B093592711C080915627909112
S11325D05727A0915827B09159278E7F809356276B
S11325E090935727A0935827B09359278091522747
S11325F090915327A0915427B09155278072992721
S1132600AA27BB270097A105B10591F08091562711
S113261090915727A0915827B091592782608093B1
S1132620562790935727A0935827B093592711C042
S11326308091562790915727A0915827B0915927F8
S11326408D7F8093562790935727A0935827B09354
S113265059278091522790915327A0915427B091E4
S1132660552780749927AA27BB270097A105B10590
S113267091F08091562790915727A0915827B091B7
S1132680592788608093562790935727A0935827FB
S1132690B093592711C08091562790915727A09144
S11326A05827B0915927877F8093562790935727AF
S11326B0A0935827B093592780915227909153277C
S11326C0A0915427B091552780789927AA27BB2732
S11326D00097A105B10591F0809156279091572755
S11326E0A0915827B09159278061809356279093E1
S11326F05727A0935827B093592711C08091562784
S113270090915727A0915827B09159278F7E809395
S1132710562790935727A0935827B0935927809111
S1132720522790915327A0915427B0915527882779
S11327309870AA27BB270097A105B10591F0809155
S1132740562790915727A0915827B0915927806414
S11327508093562790935727A0935827B0935927CF
S113276011C08091562790915727A0915827B09176
S113277059278F7B8093562790935727A0935827E8
S1132780B09359278091522790915327A0915427B1
S1132790B091552788279470AA27BB270097A105D5
S11327A0B10591F08091562790915727A091582711
S11327B0B091592780688093562790935727A09308
S11327C05827B093592711C08091562790915727C5
S11327D0A0915827B09159278F77809356279093CB
S11327E05727A0935827B093592780915227909147
S11327F05327A0915427B091552788279072AA2770
S1132800BB270097A105B10591F080915A279091BB
S11328105B27A0915C27B0915D27816080935A2744
S113282090935B27A0935C27B0935D2711C08091A0
S11328305A2790915B27A0915C27B0915D278E7FEA
S113284080935A2790935B27A0935C27B0935D27CE
S11328508091522790915327A0915427B0915527E6
S113286088279071AA27BB270097A105B10591F08D
S113287080915A2790915B27A0915C27B0915D27A6
S1132880826080935A2790935B27A0935C27B09330
S11328905D2711C080915A2790915B27A0915C27F6
S11328A0B0915D278D7F80935A2790935B27A093E7
S11328B05C27B0935D278091522790915327A09174
S11328C05427B091552788279270AA27BB270097D1
S11328D0A105B10591F080915A2790915B27A091B1
S11328E05C27B0915D27846080935A2790935B277F
S11328F0A0935C27B0935D2711C080915A279091D3
S11329005B27A0915C27B0915D278B7F80935A272A
S113291090935B27A0935C27B0935D278091522707
S113292090915327A0915427B091552788279170EF
S1132930AA27BB270097A105B10591F080915A27DA
S113294090915B27A0915C27B0915D27886080936C
S11329505A2790935B27A0935C27B0935D2711C0FF
S113296080915A2790915B27A0915C27B0915D27B5
S1132970877F80935A2790935B27A0935C27B0931B
S11329805D278091522790915327A0915427B091AD
S1132990552788279074AA27BB270097A105B1055E
S11329A091F080915A2790915B27A0915C27B09178
S11329B05D27806280935A2790935B27A0935C27BE
S11329C0B0935D2711C080915A2790915B27A09105
S11329D05C27B0915D278F7D80935A2790935B2766
S11329E0A0935C27B0935D27809152279091532741
S11329F0A0915427B0915527882790780097A10576
S1132A00B10591F080915A2790915B27A0915C27A2
S1132A10B0915D27806480935A2790935B27A0939D
S1132A205C27B0935D2711C080915A2790915B2752
S1132A30A0915C27B0915D278F7B80935A27909358
S1132A405B27A0935C27B0935D2788E080934820A0
S1132A508091522790915327A0915427B0915527E4
S1132A6081709927AA27BB270097A105B10519F002
S1132A70109248203BC08091522790915327A091F7
S1132A805427B091552784709927AA27BB2700970C
S1132A90A105B10521F086E08093482027C08091EC
S1132AA0522790915327A0915427B09155278270B3
S1132AB09927AA27BB270097A105B10521F084E037
S1132AC08093482013C08091522790915327A0915E
S1132AD05427B091552788709927AA27BB270097B8
S1132AE0A105B10519F082E0809348208091482027
S1132AF0809366288091562790915727A091582754
S1132B00B09159278093672880915A2790915B2729
S1132B10A0915C27B0915D278093682883DC88238B
S1132B2019F081E080935E270F900F90DF91CF9191
S1132B301F910F91FF90EF900895CF93DF93CDB73E
S1132B40DEB72F97CDBFDEBF8B876C877D874E871F
S1132B505F878B85882F90E0880F991F9C01220F37
S1132B60331F220F331F220F331F281B390BC901B8
S1132B708A5A9F4D89839A832091502730915127F7
S1132B808B85482F50E066E1649FC001659F900DDE
S1132B9011248F569F4F820F931F8B839C838C85A8
S1132BA09D858D839E838E859F858F8398878B8556
S1132BB0882F90E0880F991F8C5B9F4DFC018081CA
S1132BC091819E01275F3F4FAE014B5F5F4F6B8149
S1132BD07C810E944E218B85882339F489858093DA
S1132BE062288A85809363280CC089858093642831
S1132BF08A85809365283ADC882319F081E08093E4
S1132C005E272F96CDBFDEBFDF91CF910895CF937E
S1132C10DF9300D000D0CDB7DEB78FE598E28B8389
S1132C209C8319821A8210C08B819C81FC01808153
S1132C300E941A3F8B819C8101968B839C8389819E
S1132C409A81019689839A8389819A818A30910530
S1132C505CF32496CDBFDEBFDF91CF910895CF936F
S1132C60DF93CDB7DEB72C97CDBFDEBF8B879C87B4
S1132C708B859C8580935F27909360272AE0E1E110
S1132C80F1E2CE010196DC0101900D922A95E1F763
S1132C902AE0CE010196FC01AFE5B8E201900D9265
S1132CA02A95E1F78AE0EFE5F8E2A9E6B8E20190B7
S1132CB00D928A95E1F70E9490402C96CDBFDEBF1D
S1132CC0DF91CF910895CF93DF93CDB7DEB7909185
S1132CD0702880916628981761F4909171288091EA
S1132CE06728981731F49091722880916828981772
S1132CF051F043E050E066E678E280E798E20E9413
S1132D006D4881E001C080E0DF91CF910895CF93B9
S1132D10DF93CDB7DEB790916C2880916228981725
S1132D2091F490916D2880916328981761F49091A3
S1132D306E2880916428981731F490916F288091BF
S1132D406528981751F044E050E062E678E28CE69A
S1132D5098E20E946D4881E001C080E0DF91CF914C
S1132D600895EF92FF920F931F93CF93DF9300D0B8
S1132D70CDB7DEB789836A838A81813031F5898151
S1132D80282F30E081E090E0A0E0B0E07C018D01EC
S1132D9004C0EE0CFF1C001F111F2A95D2F7A801D6
S1132DA097018091612790916227A0916327B09148
S1132DB06427822B932BA42BB52B809361279093AC
S1132DC06227A0936327B09364278A81882341F5FF
S1132DD08981282F30E081E090E0A0E0B0E004C0D9
S1132DE0880F991FAA1FBB1F2A95D2F79C01AD011A
S1132DF02095309540955095809161279091622758
S1132E00A0916327B091642782239323A423B5233D
S1132E108093612790936227A0936327B0936427DC
S1132E208981813109F0A5C1809161279091622740
S1132E30A0916327B091642780719927AA27BB27A3
S1132E400097A105B10531F08091652781608093D9
S1132E50652705C0809165278E7F809365278091C3
S1132E60612790916227A0916327B09164278072B3
S1132E709927AA27BB270097A105B10531F08091B6
S1132E80652782608093652705C0809165278D7FC3
S1132E90809365278091612790916227A091632791
S1132EA0B091642780749927AA27BB270097A105AE
S1132EB0B10531F08091652788608093652705C04E
S1132EC080916527877F8093652780916127909102
S1132ED06227A0916327B091642780789927AA2755
S1132EE0BB270097A105B10531F08091652780616A
S1132EF08093652705C0809165278F7E8093652721
S1132F008091612790916227A0916327B0916427F3
S1132F1088279870AA27BB270097A105B10531F02F
S1132F208091652780648093652705C0809165271B
S1132F308F7B809365278091612790916227A09170
S1132F406327B091642788279470AA27BB2700972A
S1132F50A105B10531F080916527806880936527CC
S1132F6005C0809165278F778093652780916127BD
S1132F7090916227A0916327B0916427882790726B
S1132F80AA27BB270097A105B10531F080916627D8
S1132F9081608093662705C0809166278E7F809329
S1132FA066278091612790916227A0916327B09151
S1132FB0642788279071AA27BB270097A105B1052C
S1132FC031F08091662782608093662705C08091E6
S1132FD066278D7F80936627809161279091622771
S1132FE0A0916327B091642788279270AA27BB27F2
S1132FF00097A105B10531F0809166278460809324
S1133000662705C0809166278B7F80936627809111
S1133010612790916227A0916327B0916427882744
S11330209170AA27BB270097A105B10531F08091C3
S1133030662788608093662705C080916627877F0E
S1133040809366278091612790916227A0916327DE
S1133050B091642788279074AA27BB270097A105FD
S1133060B10531F08091662780628093662705C0A0
S1133070809166278F7D8093662780916127909148
S11330806227A0916327B0916427882790780097DE
S1133090A105B10531F0809166278064809366278D
S11330A005C0809166278F7B8093662788E0809394
S11330B04D208091612790916227A0916327B09160
S11330C0642781709927AA27BB270097A105B1051A
S11330D019F010924D203BC0809161279091622796
S11330E0A0916327B091642784709927AA27BB27EE
S11330F00097A105B10521F086E080934D2027C0FB
S11331008091612790916227A0916327B0916427F1
S113311082709927AA27BB270097A105B10521F042
S113312084E080934D2013C08091612790916227A1
S1133130A0916327B091642788709927AA27BB2799
S11331400097A105B10519F082E080934D2080918C
S11331504D2080936628809165278093672880910D
S1133160662780936828AFDD882319F081E0809377
S113317067270F900F90DF91CF911F910F91FF90D0
S1133180EF900895CF93DF93CDB7DEB72F97CDBFE0
S1133190DEBF8B876C877D874E875F878B85882F03
S11331A090E0880F991F9C01220F331F220F331FB9
S11331B0220F331F281B390BC9018A5A9F4D89835B
S11331C09A8320915F27309160278B85482F50E0A8
S11331D066E1649FC001659F900D11248F569F4F37
S11331E0820F931F8B839C838C859D858D839E8307
S11331F08E859F858F8398878B85882F90E0880F95
S1133200991F875B9F4DFC01808191819E01275FFF
S11332103F4FAE014B5F5F4F6B817C810E944E211B
S11332208B85882339F48985809362288A858093E5
S113323063280CC08985809364288A8580936528D7
S113324066DD882319F081E0809367272F96CDBF30
S1133250DEBFDF91CF910895CF93DF9300D000D0EC
S1133260CDB7DEB78FE598E28B839C8319821A82EF
S113327010C08B819C81FC0180810E941A3F8B814C
S11332809C8101968B839C8389819A810196898391
S11332909A8389819A818A3091055CF32496CDBF03
S11332A0DEBFDF91CF910895CF93DF9300D0CDB7E8
S11332B0DEB789839A8389819A8180936827909362
S11332C069270E9472400F900F90DF91CF9108956B
S11332D0CF93DF9300D0CDB7DEB789836A836A8149
S11332E089811DD10F900F90DF91CF910895CF93D5
S11332F0DF93CDB7DEB76297CDBFDEBF8E876F8712
S1133300788B498B5A8B20916827309169278E8559
S1133310482F50E066E1649FC001659F900D112421
S11333208F569F4F820F931F89839A838E85882F90
S113333090E00496880F880F8B838F8598898E83FD
S11333409F8389899A898887998789819A814296F6
S11333508C839D838E85882F90E0880F991F825BD4
S11333609F4DFC01808191819E01265F3F4FAE01FC
S11333704A5F5F4F6C817D8108D78E85882F90E0EE
S11333808259984DFC018081882F90E0833091050B
S113339009F43BC08430910521F08230910521F17C
S11333A046C08A859B8599236CF48E85882F90E08E
S11333B08259984D22E0FC0120838B818E5F61E06D
S11333C0AED03EC08A859B8518161906CCF58E852D
S11333D0882F90E08259984D23E0FC0120838B8153
S11333E08D5F61E09CD02CC08A859B85992354F124
S11333F08E85882F90E08259984D24E0FC0120832B
S11334008B818E5F60E08BD01DC08A859B851816EA
S11334101906D4F08E85882F90E08259984D24E0C7
S1133420FC0120838B818D5F60E079D00DC08E8597
S1133430882F90E08259984D24E0FC01208305C038
S1133440000003C0000001C000008E85882F90E0BA
S11334508059984DFC018081882F90E0813091053E
S1133460B9F18430910519F0009711F143C08C85AE
S11334709D8599235CF48E85882F90E08059984D22
S1133480FC01108261E08B814AD03EC08C859D8511
S113349018161906CCF58E85882F90E08059984D22
S11334A021E0FC0120838B818F5F61E038D02CC048
S11334B08C859D85992354F18E85882F90E08059C1
S11334C0984D24E0FC01208360E08B8128D01EC04D
S11334D08C859D8518161906DCF08E85882F90E062
S11334E08059984D24E0FC0120838B818F5F60E03C
S11334F016D00EC08E85882F90E08059984D24E018
S1133500FC012083000005C0000003C0000001C0CE
S113351000006296CDBFDEBFDF91CF910895EF9298
S1133520FF920F931F93CF93DF93CDB7DEB72F97FF
S1133530CDBFDEBF8E876F8719828F85813031F5CD
S11335408E85282F30E081E090E0A0E0B0E07C019F
S11335508D0104C0EE0CFF1C001F111F2A95D2F729
S1133560A801970180916A2790916B27A0916C27FD
S1133570B0916D27822B932BA42BB52B80936A27B4
S113358090936B27A0936C27B0936D278F85882326
S113359041F58E85282F30E081E090E0A0E0B0E096
S11335A004C0880F991FAA1FBB1F2A95D2F79C013C
S11335B0AD01209530954095509580916A27909162
S11335C06B27A0916C27B0916D2782239323A423AA
S11335D0B52380936A2790936B27A0936C27B093AD
S11335E06D271D821A8269C080916A2790916B278A
S11335F0A0916C27B0916D272D81222F30E0022EEF
S113360004C0B695A795979587950A94D2F78170CB
S11336109927AA27BB270097A105B10509F44AC039
S113362040916827509169278D81282F30E0C90186
S1133630880F991F880F991F880F991F820F931F56
S11336400196840F951F8E839F838E819F81FC0139
S113365081818870882371F58E819F81FC01858129
S1133660882309F18A81482F50E08E819F81FC01D3
S11336708581282F30E0CE010896B9010E94604868
S1133680009789F48A81882F90E02E813F81F90187
S113369045819E01285F3F4F820F931FFC014083A9
S11336A08A818F5F8A838E819F81FC0184819981C5
S11336B0892B89838D818F5F8D838D81803120F467
S11336C08A81863008F490CF80E18D83B7C08091E1
S11336D06A2790916B27A0916C27B0916D272D815B
S11336E0222F30E0022E04C0B695A79597958795B2
S11336F00A94D2F781709927AA27BB270097A105BE
S1133700B10509F498C08D81882F90E0833191052B
S1133710B1F18431910554F481319105F1F0823194
S1133720910524F58031910579F056C085319105D4
S1133730C1F18531910564F186319105D9F1873163
S1133740910509F440C048C0809168279091692789
S11337508D569F4F8B839C8340C0809168279091A6
S113376069278B569F4F8B839C8337C08091682732
S11337709091692789569F4F8B839C832EC080919B
S113378068279091692787569F4F8B839C8325C018
S1133790809168279091692787559F4F8B839C83DD
S11337A01CC0809168279091692785559F4F8B8312
S11337B09C8313C0809168279091692783559F4FFC
S11337C08B839C830AC080916827909169278155D7
S11337D09F4F8B839C8301C02EC08B819C81FC01F5
S11337E08181882309F18A81482F50E08B819C8153
S11337F0FC018181282F30E0CE010896B9010E9496
S11338006048009789F48A81882F90E02B813C815D
S1133810F90141819E01285F3F4F820F931FFC01F4
S113382040838A818F5F8A838B819C81FC018081A4
S11338309981892B89838D818F5F8D838D818831D7
S113384020F48A81863008F442CF81EA0E941A3F2C
S113385081E00E941A3F80E00E941A3F89810E9401
S11338601A3F1D8217C09D818A81981768F48D8143
S1133870882F90E09E01285F3F4F820F931FFC0129
S113388080810E941A3F03C080E00E941A3F8D810C
S11338908F5F8D838D81863030F32F96CDBFDEBF51
S11338A0DF91CF911F910F91FF90EF900895CF93E7
S11338B0DF9300D0CDB7DEB789839A8389819A815B
S11338C080937227909373270E947C4044E150E0D8
S11338D060E070E089E797E20E9412260F900F9053
S11338E0DF91CF910895CF93DF9300D0CDB7DEB7AA
S11338F089836A836A818981DED10F900F90DF9179
S1133900CF910895CF93DF93CDB7DEB76797CDBF3F
S1133910DEBF8B8B6C8B7D8B4E8B5F8B1F821886EF
S113392019861A868C899D898B879C878E899F89A5
S11339308D879E8720917227309173278B89482F1A
S113394050E066E1649FC001659F900D11248F567D
S11339509F4F820F931F89839A838B89882F90E0CE
S11339600496880F880F8B8389819A81FC0180815A
S11339708074882399F58B89882F90E0880F991F8C
S11339808E5A9F4DFC01808191819E01295F3F4F9A
S1133990AE01455F5F4F69817A81A8D58F81988593
S11339A0009759F08F8198852EE630E0B9010E9486
S11339B0E0479B01C9018F83988789859A85009781
S11339C009F4F0C089859A852EE630E0B9010E9499
S11339D0E0479B01C90189879A87E4C089819A815C
S11339E042968C839D838B89882F90E0880F991F42
S11339F08E5A9F4DFC01808191819E01215F3F4F32
S1133A00AE01455F5F4F6C817D81BFD38B89882F69
S1133A1090E08F57984DFC018081882F90E083308F
S1133A20910509F43BC08430910521F08230910561
S1133A3021F146C08F85988999236CF48B89882F4E
S1133A4090E08F57984D22E0FC0120838B818E5F9C
S1133A5061E031D13EC08F85988918161906CCF5DE
S1133A608B89882F90E08F57984D23E0FC012083A9
S1133A708B818D5F61E01FD12CC08F85988999233C
S1133A8054F18B89882F90E08F57984D24E0FC01E6
S1133A9020838B818E5F60E00ED11DC08F85988955
S1133AA018161906D4F08B89882F90E08F57984DFB
S1133AB024E0FC0120838B818D5F60E0FCD00DC08D
S1133AC08B89882F90E08F57984D24E0FC01208348
S1133AD005C0000003C0000001C000008B89882FCE
S1133AE090E08D57984DFC018081882F90E08130C3
S1133AF09105B9F18430910519F0009711F143C093
S1133B0089899A8999235CF48B89882F90E08D5751
S1133B10984DFC01108261E08B81CDD03EC0898933
S1133B209A8918161906CCF58B89882F90E08D5741
S1133B30984D21E0FC0120838B818F5F61E0BBD035
S1133B402CC089899A89992354F18B89882F90E014
S1133B508D57984D24E0FC01208360E08B81ABD02D
S1133B601EC089899A8918161906DCF08B89882F5A
S1133B7090E08D57984D24E0FC0120838B818F5F6A
S1133B8060E099D00EC08B89882F90E08D57984DB6
S1133B9024E0FC012083000005C0000003C00000F5
S1133BA001C000008F819885009759F489859A8512
S1133BB0009739F49091782780918527981709F414
S1133BC074C08D859E859C018B859C85B9010E945E
S1133BD05F2960E08BE191E20E94802829853A8583
S1133BE08F819885B9010E945F298EE191E20E943C
S1133BF0A72889E797E20E943A26882309F455C04A
S1133C0044E150E060E070E089E797E20E94122608
S1133C1080917827809385278FE191E20E942D3F40
S1133C20809178270E94E83E8CE20E941A3F8F819F
S1133C3098858E838E810E94E83E8CE20E941A3F12
S1133C408F819885892F990F990B282F2F7089853B
S1133C509A8582959295907F9827807F9827822BCA
S1133C608E838E810E94E83E8CE20E941A3F8985F1
S1133C709A85959587959595879595958795959525
S1133C8087958E838E810E94E83E8CE20E941A3FC3
S1133C9080E00E94E83E8DE00E941A3F8AE00E9484
S1133CA01A3F1F82188619861A866796CDBFDEBF13
S1133CB0DF91CF910895EF92FF920F931F93CF93CB
S1133CC0DF93CDB7DEB72F97CDBFDEBF8E876F876B
S1133CD01982109278278F85813031F58E85282FAF
S1133CE030E081E090E0A0E0B0E07C018D0104C010
S1133CF0EE0CFF1C001F111F2A95D2F7A801970193
S1133D008091742790917527A0917627B091772799
S1133D10822B932BA42BB52B809374279093752718
S1133D20A0937627B09377278F85882341F58E85D6
S1133D30282F30E081E090E0A0E0B0E004C0880FDC
S1133D40991FAA1FBB1F2A95D2F79C01AD0120958C
S1133D503095409550958091742790917527A09146
S1133D607627B091772782239323A423B5238093C6
S1133D70742790937527A0937627B09377271D8295
S1133D801A8275C08091742790917527A091762727
S1133D90B09177272D81222F30E0022E04C0B695F2
S1133DA0A795979587950A94D2F781709927AA27A2
S1133DB0BB270097A105B10509F456C040917227AD
S1133DC0509173278D81282F30E0C901880F991FE6
S1133DD0880F991F880F991F820F931F0196840FD4
S1133DE0951F8E839F838E819F81FC0181818870C2
S1133DF0882379F58E819F81FC018581882309F1CF
S1133E008A81482F50E08E819F81FC018581282F73
S1133E1030E0CE010896B9010E946048009789F409
S1133E208A81882F90E02E813F81F90145819E018E
S1133E30285F3F4F820F931FFC0140838A818F5F6D
S1133E408A838E819F81FC0184819981892B898356
S1133E500BC08E819F81FC0181818770982F809196
S1133E607827892B809378278D818F5F8D838D812F
S1133E70803120F48A81863008F484CF80E18D83F8
S1133E80B7C08091742790917527A0917627B0913F
S1133E9077272D81222F30E0022E04C0B695A795F6
S1133EA0979587950A94D2F781709927AA27BB27FB
S1133EB00097A105B10509F498C08D81882F90E081
S1133EC083319105B1F18431910554F48131910527
S1133ED0F1F08231910524F58031910579F056C0D5
S1133EE085319105C1F18531910564F186319105E2
S1133EF0D9F18731910509F440C048C080917227F7
S1133F00909173278D569F4F8B839C8340C08091E3
S1133F107227909173278B569F4F8B839C8337C056
S1133F20809172279091732789569F4F8B839C832E
S1133F302EC0809172279091732787569F4F8B8351
S1133F409C8325C0809172279091732787559F4F3A
S1133F508B839C831CC08091722790917327855515
S1133F609F4F8B839C8313C08091722790917327FA
S1133F7083559F4F8B839C830AC0809172279091B5
S1133F80732781559F4F8B839C8301C02EC08B81E7
S1133F909C81FC018181882309F18A81482F50E0AA
S1133FA08B819C81FC018181282F30E0CE01089611
S1133FB0B9010E946048009789F48A81882F90E0B3
S1133FC02B813C81F90141819E01285F3F4F820F83
S1133FD0931FFC0140838A818F5F8A838B819C813C
S1133FE0FC0180819981892B89838D818F5F8D83E9
S1133FF08D81883120F48A81863008F442CF8CE2A6
S113400091E20E942D3F89810E94E83E1D821AC0E0
S11340108CE20E941A3F9D818A81981768F48D81F1
S1134020882F90E09E01285F3F4F820F931FFC0171
S113403080810E94E83E03C080E00E94E83E8D81BA
S11340408F5F8D838D81863018F38DE00E941A3F37
S11340508AE00E941A3F2F96CDBFDEBFDF91CF9139
S11340601F910F91FF90EF9008951F93CF93DF93CB
S1134070CDB7DEB76097CDBFDEBF87E0ECE3F1E2FA
S1134080DE011A9601900D928A95E1F760E184E0D1
S11340900E94C02A81ED91E089839A8389819A8163
S11340A0FC0114911B838B81882F90E03CD00E94EB
S11340B09A29CE010A96BC0180EA99E00E94E93768
S11340C0882371F088EC91E08C839D838C819D81A1
S11340D0FC0114911E838E81882F90E043D00DC083
S11340E08DEC91E08F8398878F819885FC011491E2
S11340F019878985882F90E035D06096CDBFDEBFC3
S1134100DF91CF911F910895CF93DF931F92CDB785
S1134110DEB78983698180EA99E00E942F380F9085
S1134120DF91CF910895CF93DF9300D0CDB7DEB761
S113413089839A830CC089819A81FC018081282F0C
S113414089819A81019689839A83822FDDDF89810F
S11341509A81FC018081882371F70F900F90DF9181
S1134160CF910895CF93DF9300D0CDB7DEB7898385
S11341709A8389819A81D7DF8DE0C6DF8AE0C4DF24
S11341800F900F90DF91CF910895CF93DF93CDB728
S1134190DEB72C97CDBFDEBF8D839E836F83788778
S11341A049875A872B873C8789859A85FC018081BA
S11341B0918189839A8389859A85FC01828193817F
S11341C08B839C8329813A818D819E81FC0180812E
S11341D09181A901481B590BCA0189839A832B81B8
S11341E03C818D819E81FC0182819381A901481BC0
S11341F0590BCA018B839C8389819A8191958195FE
S1134200910989839A838B819C81919581959109E8
S11342108B839C8389819A8199231CF49195819540
S1134220910922273327281B390B8F819885FC019C
S1134230808191819195819591098217930714F456
S113424019821A828B819C8199231CF49195819502
S1134250910922273327281B390B8F819885FC016C
S1134260828193819195819591098217930714F422
S11342701B821C828B859C8529813A81FC012083C9
S113428031838B859C852B813C81FC012283338384
S11342902C96CDBFDEBFDF91CF910895CF93DF93EE
S11342A0CDB7DEB72C97CDBFDEBF8D839E836F83E2
S11342B0788749875A872B873C8789859A85FC01AB
S11342C08081918189839A8389859A85FC01828181
S11342D093818B839C8329813A818D819E81FC010A
S11342E080819181A901481B590BCA0189839A8352
S11342F02B813C818D819E81FC0182819381A90166
S1134300481B590BCA018B839C8389819A81992309
S11343101CF491958195910922273327281B390B89
S11343208F819885FC018289938991958195910962
S113433082179307DCF48B819C8199231CF491955B
S11343408195910922273327281B390B8F81988562
S1134350FC01848995899195819591098217930728
S11343602CF419821A821B821C8288C089819A814A
S11343701816190604F589819A819C01442737FD92
S11343804095542F81E89FEFDC010E943C48DC01FA
S1134390CB012F813885F90124853585442737FDE4
S11343A04095542FBC01CD010E941548DA01C90182
S11343B089839A831FC089819A819C01442737FD90
S11343C04095542F8FE790E0DC010E943048DC01D7
S11343D0CB012F813885F90122853385442737FDA8
S11343E04095542FBC01CD010E941548DA01C90142
S11343F089839A838B819C811816190604F58B8115
S11344009C819C01442737FD4095542F81E89FEF00
S1134410DC010E943C48DC01CB012F813885F90185
S113442020893189442737FD4095542FBC01CD01A3
S11344300E941548DA01C9018B839C831FC08B81BC
S11344409C819C01442737FD4095542F8FE790E0D1
S1134450DC010E943048DC01CB012F813885F90151
S113446026853785442737FD4095542FBC01CD015F
S11344700E941548DA01C9018B839C8389819A8142
S1134480803891052CF08FE790E089839A830AC0E5
S113449089819A818138FFEF9F0724F481E89FEF97
S11344A089839A838B819C81803891052CF08FE7D6
S11344B090E08B839C830AC08B819C8181382FEF91
S11344C0920724F481E89FEF8B839C8329818B8559
S11344D09C85FC0120832B818B859C85FC01218399
S11344E02C96CDBFDEBFDF91CF910895CF93DF939C
S11344F0CDB7DEB72C97CDBFDEBF8D839E836F8390
S1134500788749875A872B873C8789859A85FC0158
S11345108081918189839A8389859A85FC0182812E
S113452093818B839C8329813A818D819E81FC01B7
S113453080819181A901481B590BCA0189839A83FF
S11345402B813C818D819E81FC0182819381A90113
S1134550481B590BCA018B839C8389819A819923B7
S11345601CF491958195910922273327281B390B37
S11345708F819885FC018289938991958195910910
S113458082179307DCF48B819C8199231CF4919509
S11345908195910922273327281B390B8F81988510
S11345A0FC018489958991958195910982179307D6
S11345B02CF419821A821B821C820EC089819A8172
S11345C091958195910989839A838B819C81919599
S11345D0819591098B839C8389819A818115F8E067
S11345E09F072CF08FEF97E089839A830AC0898113
S11345F09A81811528EF920724F480E098EF89834B
S11346009A838B819C81811548E094072CF08FEF6D
S113461097E08B839C830AC08B819C81811558EF22
S1134620950724F480E098EF8B839C838B859C858D
S113463029813A81FC01208331838B859C852B81E0
S11346403C81FC01228333832C96CDBFDEBFDF91F6
S1134650CF910895CF93DF931F92CDB7DEB78983AF
S113466088E490E028E430E0F9012081322F317FA2
S11346702981232BFC0120830F90DF91CF91089592
S1134680CF93DF93CDB7DEB72897CDBFDEBF888742
S11346908885898389818A838A818B838B818695A6
S11346A0869586958C838C81882F90E0880F991F3E
S11346B082959295907F9827807F98279A5F8D8323
S11346C09E838D819E81FC01408589818F838F81AA
S11346D0882F90E09C012770332781E090E0022E20
S11346E002C0880F991F0A94E2F7942F982381E05F
S11346F0992309F480E02896CDBFDEBFDF91CF91E6
S11347000895CF93DF93CDB7DEB761E089E790E0FA
S11347100E945F2DFFCF6150710981099109D9F77A
S11347200895CF93DF931F92CDB7DEB7898302D666
S113473080E02BD60E947A3F6AEA70EA81E090E03A
S1134740EADF789484E086DF88E490E028E430E0CF
S1134750F90120812160FC01208301C000008895BB
S113476080ED97E011D08823C9F3000088E490E03D
S113477028E430E0F90120812E7FFC012083C1DF91
S11347800F90DF91CF910895CF93DF93CDB7DEB72C
S11347902B97CDBFDEBF8A879B878A859B85CC01FB
S11347A0A0E0B0E09E012E5F3F4FAC01BD01C90106
S11347B039D20E94821189830AC088E00E94F309D9
S11347C0982F81E08927882311F080E00CC0CE0166
S11347D0029650D2982F81E08927882371F7898126
S11347E00E94AE1081E02B96CDBFDEBFDF91CF914A
S11347F00895CF92DF92EF92FF92CF93DF93CDB7DC
S1134800DEB72797CDBFDEBF8E839F8393D580E02D
S1134810BCD5C5D1DC01CB0189839A83AB83BC832E
S113482000008AE22DDF8823E1F765E570ED80E082
S113483090E071DF8E819F819C0140E050E089818E
S11348409A81AB81BC8169017A01C80ED91EEA1E26
S1134850FB1EA5D1DC01CB0121E08C159D05AE0525
S1134860BF0508F020E02D8381E08FD563D58D81CD
S11348702796CDBFDEBFDF91CF91FF90EF90DF9001
S1134880CF900895CF93DF931F92CDB7DEB789837E
S113489080ED97E0AEDF982F81E08927882311F01F
S11348A089813FDF81E00F90DF91CF910895CF930D
S11348B0DF93CDB7DEB72597CDBFDEBF89839A835B
S11348C06B834C835D8389819A81807499270097D7
S11348D0A9F58B81882F90E082309105B1F0833067
S11348E0910524F48130910541F049C0833091054C
S11348F0A1F084309105C9F042C089819A812C814C
S11349003D81FC0120AF31AF3AC089819A812C816D
S11349103D81FC0122AF33AF32C089819A812C8161
S11349203D81FC0124AF35AF2AC089819A812C8155
S11349303D81FC0126AF37AF000021C089819A81F7
S1134940807499270097D9F08B81882F90E081306B
S1134950910521F08230910549F010C089819A8136
S11349602C813D81FC0120AF31AF09C089819A813E
S11349702C813D81FC0122AF33AF01C0000025969C
S1134980CDBFDEBFDF91CF910895CF93DF9300D0E9
S11349901F92CDB7DEB789839A836B8389819A810D
S11349A0FC01858196819C0140E050E08B81882F39
S11349B090E0A0E0B0E0BC01CD010E94D147DC0151
S11349C0CB0124E630E040E050E0BC01CD010E9480
S11349D0F347DA01C9019C0189819A81FC01628152
S11349E089819A81FC0180819181A90160DF2396EC
S11349F0CDBFDEBFDF91CF910895CF93DF931F9298
S1134A00CDB7DEB78983898180939B2724EF31E07A
S1134A1042E066E086E897E20E94A23C24EF31E09F
S1134A2041E062E08DE897E20E94A23C24EF31E08D
S1134A3042E062E084E997E20E94A23C64E686E8F0
S1134A4097E20E94CF3D64E68DE897E20E94CF3D55
S1134A5064E684E997E20E94CF3D0F90DF91CF9105
S1134A600895CF93DF931F92CDB7DEB789838981F1
S1134A70853610F084E6898394E68981292F281BE2
S1134A80822F682F86E897E280DF0F90DF91CF9125
S1134A900895CF93DF931F92CDB7DEB789838981C1
S1134AA0853610F084E6898394E68981492F481B72
S1134AB080919B27882319F022E030E002C021E096
S1134AC030E0C901880F991F880F991F880F991F1B
S1134AD0821B930B8A57984D642F57DF0F90DF91F9
S1134AE0CF910895CF93DF931F92CDB7DEB789831B
S1134AF08981853610F084E6898394E68981492F7B
S1134B00481B80919B27882319F021E030E002C0E4
S1134B1022E030E0C901880F991F880F991F880F80
S1134B20991F821B930B8A57984D642F2EDF0F9089
S1134B30DF91CF910895CF93DF9300D01F92CDB72B
S1134B40DEB789836A834B8389818BDF8A81A1DF06
S1134B508B81C8DF2396CDBFDEBFDF91CF9108954F
S1134B60CF93DF931F92CDB7DEB78FE390E0FC01C4
S1134B7080818983F89489810F90DF91CF91089582
S1134B80CF93DF931F92CDB7DEB789838FE390E095
S1134B902981FC0120830F90DF91CF910895CF9359
S1134BA0DF93CDB7DEB72597CDBFDEBFD9DF8983CD
S1134BB080919E2790919F27A091A027B091A12733
S1134BC08A839B83AC83BD838981DADF8A819B815D
S1134BD0AC81BD81BC01CD012596CDBFDEBFDF9187
S1134BE0CF910895CF93DF931F92CDB7DEB7B8DF8F
S1134BF0898380919E2790919F27A091A027B091AF
S1134C00A1270196A11DB11D80939E2790939F27F4
S1134C10A093A027B093A1278981B2DF0F90DF91E1
S1134C20CF910895CF93DF93CDB7DEB72697CDBF4D
S1134C30DEBF89839A834B835C836D837E83AFDF7E
S1134C40DC01CB0129813A81F90180839183A2831C
S1134C50B38329813A818B819C81AD81BE81F90125
S1134C6084839583A683B7832696CDBFDEBFDF9169
S1134C70CF910895CF93DF9300D0CDB7DEB789836A
S1134C809A8389819A81FC0184819581A681B78167
S1134C900097A105B105E9F082DF9B01AC01898190
S1134CA09A81FC0180819181A281B381281B390BF7
S1134CB04A0B5B0B89819A81FC0184819581A681D1
S1134CC0B781281739074A075B0718F081E090E09D
S1134CD002C080E090E081700F900F90DF91CF913F
S1134CE00895CF93DF9300D0CDB7DEB789839A833D
S1134CF089819A81FC0114821582168217820F9091
S1134D000F90DF91CF910895CF93DF9300D01F923E
S1134D10CDB7DEB789839A836B8389819A81FC013D
S1134D208681282F2C7F89819A81FC0126838981A1
S1134D309A81FC0196818B81292F282B89819A8164
S1134D40FC0126832396CDBFDEBFDF91CF9108956A
S1134D50CF93DF9300D01F92CDB7DEB789839A83B8
S1134D606B8389819A81FC018081982F907F8B814C
S1134D70892B282F89819A81FC0120832396CDBF1A
S1134D80DEBFDF91CF910895CF93DF9300D01F92C0
S1134D90CDB7DEB789839A836B838B81882359F4DB
S1134DA089819A81FC0180858E6F282F89819A815F
S1134DB0FC0120870AC089819A81FC018185282F02
S1134DC0216089819A81FC0121872396CDBFDEBFB2
S1134DD0DF91CF910895CF93DF9300D000D0CDB76A
S1134DE0DEB789839A836B837C8389819A812B8143
S1134DF03C81FC0120A331A32496CDBFDEBFDF910B
S1134E00CF910895CF93DF9300D000D0CDB7DEB714
S1134E1089839A836B837C8389819A812B813C81EA
S1134E20FC0126A337A32496CDBFDEBFDF91CF912B
S1134E300895CF93DF9300D0CDB7DEB789839A83EB
S1134E4089819A81FC018485282F216089819A8136
S1134E50FC0124870F900F90DF91CF910895CF9399
S1134E60DF9300D01F92CDB7DEB789839A836B831B
S1134E7089819A81FC018181982F987F8B81892B6C
S1134E80282F89819A81FC0121832396CDBFDEBF1F
S1134E90DF91CF910895CF93DF9300D0CDB7DEB7E4
S1134EA089839A8328D060E080E498E06DDF60E035
S1134EB080E498E0D4DF60E070E080E498E08BDF89
S1134EC060E07DE780E498E09DDF2BD089819A81C2
S1134ED0BC0180E498E00E94AD3661E080E498E093
S1134EE013DF61E080E498E033DF10D00F900F907F
S1134EF0DF91CF910895CF93DF93CDB7DEB780E4F0
S1134F0098E00E94E935DF91CF910895CF93DF9324
S1134F10CDB7DEB780E498E00E944B36DF91CF91A5
S1134F200895CF93DF93CDB7DEB780E498E081DFB7
S1134F30DF91CF910895CF93DF931F92CDB7DEB762
S1134F408FE390E0FC0180818983F89489810F903C
S1134F50DF91CF910895CF93DF931F92CDB7DEB742
S1134F6089838FE390E02981FC0120830F90DF91F6
S1134F70CF910895CF93DF93CDB7DEB761E089E792
S1134F8090E09DD5FFCFCF93DF9300D01F92CDB794
S1134F90DEB789839A836B8389819A81FC0183813B
S1134FA0282F2F7C8B81882F90E082959295907F7B
S1134FB09827807F9827822B282F89819A81FC014A
S1134FC023832396CDBFDEBFDF91CF910895CF9386
S1134FD0DF9300D01F92CDB7DEB789839A836B83AA
S1134FE089819A81FC018381982F9C7F8B81892BF5
S1134FF0282F89819A81FC0123832396CDBFDEBFAC
S1135000DF91CF910895CF93DF9300D0CDB7DEB772
S113501089839A8389819A8120E8FC0121830F90F6
S11350200F90DF91CF910895CF93DF9300D01F921B
S1135030CDB7DEB789839A836B8389819A812B816B
S1135040FC0120832396CDBFDEBFDF91CF9108956D
S1135050CF93DF9300D0CDB7DEB789839A8389815C
S11350609A81FC0180810F900F90DF91CF91089578
S1135070CF93DF93CDB7DEB760E183E081D283E4E1
S113508091E251D857D162E770E280EA98E00E9439
S1135090E937882321F083E591E264D803C088E5E9
S11350A091E260D840E462EA77E282EE97E20E94FD
S11350B0F60A40E268EE77E288E098E20E94F60A97
S11350C061E080EA98E05FDFDF91CF910895CF93AC
S11350D0DF931F92CDB7DEB789830000698188E032
S11350E098E20E941B0B982F81E089278823B1F74F
S11350F061E080EA98E06BDF0F90DF91CF91089533
S1135100CF93DF9300D01F92CDB7DEB789839A8304
S11351106B830CC089819A81FC018081282F89814D
S11351209A81019689839A83822FD1DF89819A811A
S1135130FC018081882371F78B81882311F080E042
S1135140C6DF2396CDBFDEBFDF91CF910895CF9305
S1135150DF9300D0CDB7DEB789839A8389819A81A2
S113516060E0CEDF8DE0B3DF8AE0B1DF0F900F9017
S1135170DF91CF910895CF93DF9300D01F92CDB7E5
S1135180DEB789839A836B8389819A814B81BC01C1
S113519082EE97E20E94E40B2396CDBFDEBFDF913F
S11351A0CF9108951F920F9200903F000F92112407
S11351B000903B000F922F933F934F935F936F9315
S11351C07F938F939F93AF93BF93EF93FF93CF936B
S11351D0DF9300D0CDB7DEB7AEDE898380EA98E0F6
S11351E037DF8A838A818B3109F4C4DE8A81682F90
S11351F082EE97E20E941B0B80EA98E004DF89812B
S1135200AADE0F900F90DF91CF91FF91EF91BF91A4
S1135210AF919F918F917F916F915F914F913F914A
S11352202F910F9000923B000F9000923F000F903F
S11352301F9018951F920F9200903F000F92112417
S113524000903B000F922F933F934F935F936F9384
S11352507F938F939F93AF93BF93EF93FF93CF93DA
S1135260DF931F92CDB7DEB7CE010196BC0188E073
S113527098E20E946B0B882331F08981682F80EAC1
S113528098E0D2DE04C060E080EA98E0A0DE0F90EF
S1135290DF91CF91FF91EF91BF91AF919F918F914A
S11352A07F916F915F914F913F912F910F90009259
S11352B03B000F9000923F000F901F901895CF93E2
S11352C0DF93CDB7DEB72C97CDBFDEBF89879A8732
S11352D06B877C8788E2FBDE89859A854AE050E00B
S11352E09E012F5F3F4FB9010E94884860E008DFAC
S11352F08CE2EDDE8B859C854AE050E09E012F5FB9
S11353003F4FB9010E94884860E0FADE89E2DFDE9F
S11353102C96CDBFDEBFDF91CF910895CF93DF935D
S1135320CDB7DEB78AE00E941A3A0E94513ADF9163
S1135330CF910895CF93DF93CDB7DEB78CE591E29B
S11353400E949320A895DF91CF910895CF93DF9386
S11353501F92CDB7DEB7198280917B2090917C207B
S1135360009749F080917B2090917C200197809355
S11353707B2090937C20998181E08927882309F000
S1135380D9DF0F90DF91CF910895CF93DF931F92D0
S1135390CDB7DEB789838981882319F00E94513AF9
S11353A002C00E943C3A0F90DF91CF910895CF93B1
S11353B0DF931F92CDB7DEB789838981882F90E070
S11353C0009721F08230910541F00EC084E690E010
S11353D080937B2090937C2007C084E690E08093A8
S11353E0792090937A2000000F90DF91CF91089557
S11353F0CF93DF931F92CDB7DEB78FE390E0FC012C
S113540080818983F89489810F90DF91CF910895E9
S1135410CF93DF931F92CDB7DEB789838FE390E0FC
S11354202981FC0120830F90DF91CF910895CF93C0
S1135430DF9300D0CDB7DEB78A83DADF898380E5D6
S113544090E020E530E0F90130812A81232BFC0132
S113545020838981DDDF0F900F90DF91CF91089534
S1135460CF93DF931F92CDB7DEB789830F90DF917F
S1135470CF910895CF93DF9300D0CDB7DEB78A8361
S1135480B7DF898380E590E020E530E0F9012081F1
S1135490322F2A8120952323FC0120838981B8DFC0
S11354A00F900F90DF91CF910895CF93DF931F92C8
S11354B0CDB7DEB789838981883019F08981B7DF58
S11354C002C08981CDDF0F90DF91CF910895CF93F2
S11354D0DF931F92CDB7DEB7898380E590E0FC01AE
S11354E091818981982381E0992309F480E00F90C8
S11354F0DF91CF910895CF93DF931F92CDB7DEB79D
S1135500898300008981E3DF982F81E0892788233C
S1135510C9F70F90DF91CF910895CF93DF9300D017
S113552000D0CDB7DEB780E790E089839A831B82F1
S11355300DC089819A812FEFFC01208389819A8192
S1135540019689839A838B818F5F8B838B818730CC
S113555080F31C8282E0A9DF82E0CDDF000061E0FD
S113556080E490E0ACD29C8181E08927882311F00B
S113557081E080DF2496CDBFDEBFDF91CF91089517
S1135580CF93DF9300D01F92CDB7DEB78A836B83AE
S11355902FDF89838A81882F90E080599F4F2A8149
S11355A0222F30E020593F4FF9012081322F2B81E7
S11355B020952323FC01208389812ADF2396CDBFF4
S11355C0DEBFDF91CF910895CF93DF9300D01F9278
S11355D0CDB7DEB78A836B830BDF89838A81882FFB
S11355E090E080599F4F2A81222F30E020593F4F6D
S11355F0F90130812B81232BFC012083898108DF71
S11356002396CDBFDEBFDF91CF910895CF93DF9373
S11356101F92CDB7DEB78FE390E0FC0180818983D0
S1135620F89489810F90DF91CF910895CF93DF9300
S11356301F92CDB7DEB789838FE390E02981FC0107
S113564020830F90DF91CF910895CF93DF9300D003
S1135650CDB7DEB78A83DADF89838A81882F90E029
S11356609C012D58374DF90120812F5F8D58974D9E
S1135670FC0120838981DADF0F900F90DF91CF91B5
S11356800895CF93DF9300D0CDB7DEB789839A8393
S113569089819A81811522E0920771F490910E28F4
S11356A081E0992309F080E09F5F90930E2888237E
S11356B019F062E081E064DF0F900F90DF91CF91E9
S11356C00895CF93DF9300D0CDB7DEB789839A8353
S11356D089819A81811522E0920761F480910E28D4
S11356E0815080930E2880910E28882319F462E05B
S11356F081E06ADF0F900F90DF91CF910895CF93EF
S1135700DF9300D01F92CDB7DEB78A839B837EDF01
S113571089838A819B81B5DF8A819B81FC01808199
S1135720282F21608A819B81FC01208389817EDF6F
S113573081E08BDF2396CDBFDEBFDF91CF9108954B
S1135740CF93DF931F92CDB7DEB78FE390E0FC01D8
S113575080818983F89489810F90DF91CF91089596
S1135760CF93DF931F92CDB7DEB789838FE390E0A9
S11357702981FC0120830F90DF91CF910895CF936D
S1135780DF931F92CDB7DEB789838981882F90E09C
S1135790BC0182E02DD30F90DF91CF910895CF9378
S11357A0DF9300D01F92CDB7DEB78B838B81882F18
S11357B090E0009721F082309105C1F02EC081E283
S11357C0DEDF882F90E089839A8389819A81982FDC
S11357D0882789839A8380E2D2DF882F90E0298109
S11357E03A81822B932B89839A8319C08FE2C7DF76
S11357F0882F90E089839A8389819A81982F8827BA
S113580089839A838EE2BBDF882F90E029813A81D5
S1135810822B932B89839A8302C019821A828981ED
S11358209A812396CDBFDEBFDF91CF910895CF93A8
S1135830DF93CDB7DEB72897CDBFDEBF8D839E83C0
S11358406F8378878D819E81811522E0920709F00C
S113585050C080E0A4DF89839A8372DF8B838D81BB
S11358609E810FDF8D819E81FC01808181708C83FC
S11358708D819E8122E0FC0120838D819E8129817E
S11358803A81FC01248735878F819885FC01248126
S113589035818D819E81FC01208F318F8F81988588
S11358A0FC0121818D819E81FC0122838F81988559
S11358B0FC0123818D819E81FC0124838F81988545
S11358C0FC0122818D819E81FC0123838F81988537
S11358D0FC0120818D819E81FC0121838D819E812B
S11358E02C81FC0120838D819E81EBDE8B8138DF4E
S11358F001C000002896CDBFDEBFDF91CF9108958F
S1135900CF93DF93CDB7DEB72597CDBFDEBF8A83B4
S11359109B836C837D8314DF89838A819B81B1DEC1
S11359208A819B81FC01208D318D8C819D81FC01BC
S1135930248335838A819B81FC0122818C819D8112
S1135940FC0121838A819B81FC0124818C819D81BE
S1135950FC0123838A819B81FC0123818C819D81AD
S1135960FC0122838A819B81FC0121818C819D81A0
S1135970FC0120838A819B81A4DE8981F1DE259646
S1135980CDBFDEBFDF91CF910895CF93DF93CDB725
S1135990DEB72C97CDBFDEBF888799876A874B8790
S11359A05C87888599858C839D838A858F831E82F5
S11359B08C819D819C01205E3F4F8E81882F90E0D9
S11359C0880F991F880F991F880F991F820F931FA3
S11359D089839A83B5DE8B838885998552DE8B858E
S11359E09C85FC01208189819A81FC0120838B851F
S11359F09C85FC01228189819A81FC0122838B850B
S1135A009C85FC01218189819A81FC0121838885FF
S1135A10998557DE8B81A4DE2C96CDBFDEBFDF9146
S1135A20CF910895CF93DF93CDB7DEB72C97CDBF39
S1135A30DEBF888799876A874B875C8788859985C5
S1135A408C839D838A858F831E828C819D819C019A
S1135A50205E3F4F8E81882F90E0880F991F880F1A
S1135A60991F880F991F820F931F89839A8368DE79
S1135A708B838885998505DE89819A81FC01208143
S1135A808B859C85FC01208389819A81FC0122817C
S1135A908B859C85FC01228389819A81FC0121816B
S1135AA08B859C85FC012183888599850ADE8B8101
S1135AB057DE2C96CDBFDEBFDF91CF9108951BBE7C
S1135AC0FC0128ED24BF60830895CF93DF93CDB705
S1135AD0DEB780EC91E0FC0187858823D4F3DF9165
S1135AE0CF910895CF93DF93CDB7DEB761E08BEC10
S1135AF091E0E5DFDF91CF910895CF93DF9300D05C
S1135B00CDB7DEB78A8380EC91E0FC01828589837E
S1135B1080EC91E02A81FC01228761E08BEC91E02A
S1135B20CEDF80EC91E02981FC0122870F900F9059
S1135B30DF91CF910895CF93DF93CDB7DEB78CEC8F
S1135B4091E02CEC31E0F90120812860FC012083F4
S1135B50DF91CF910895CF93DF93CDB7DEB78CEC6F
S1135B6091E02CEC31E0F9012081277FFC012083B6
S1135B70DF91CF910895CF93DF93CDB7DEB726970A
S1135B80CDBFDEBF89839A836B837C834D835E8321
S1135B909CDFD1DF89819A81905F9C014D815E8178
S1135BA08B819C81B9010E946D48D5DF2696CDBFBB
S1135BB0DEBFDF91CF910895CF93DF9300D000D063
S1135BC0CDB7DEB78A839B836C8380EC91E0FC01C4
S1135BD08285898387D079DF80EC91E023E3FC011F
S1135BE0228780EC91E0FC01128280EC91E02A8112
S1135BF03B81232F3327FC01218380EC91E02A8110
S1135C00FC01208380EC91E02C81FC01248380EC56
S1135C1091E025E3FC01228765DF80EC91E0298196
S1135C20FC0122872496CDBFDEBFDF91CF9108957A
S1135C30CF93DF93CDB7DEB72697CDBFDEBF898381
S1135C409A836B837C834D835E8341C089819A816F
S1135C508F719927009719F58D819E818032910566
S1135C60F0F08B819C8156D089819A819695879595
S1135C70929582958F7089279F7089278BD089810F
S1135C809A81809689839A838B819C8180968B8369
S1135C909C838D819E8180978D839E8318C08B8188
S1135CA09C81FC01408189819A8129813A812F5FFD
S1135CB03F4F29833A83642F7FDF8B819C81019638
S1135CC08B839C838D819E8101978D839E838D819F
S1135CD09E81009709F0BACF2696CDBFDEBFDF9133
S1135CE0CF910895CF93DF93CDB7DEB7EEDE80EC8E
