:100000000C94ED800C94FF800C94FF800C94FF8086
:100010000C94FF800C94FF800C94FF800C94FF8064
:100020000C94FF800C94FF800C94FF800C94FF8054
:100030000C94FF800C94FF800C94FF800C94FF8044
:100040000C94FF800C94FF800C94FF800C94FF8034
:100050000C94FF800C94FF800C94FF800C94FF8024
:100060000C94FF800C94FF800C94FF800C94FF8014
:100070000C94FF800C94FF800C94FF800C94FF8004
:100080000C94FF800C94FF800C94FF800C94FF80F4
:100090000C94FF800C94FF800C94FF800C94FF80E4
:1000A0000C94FF800C94FF800C94FF800C94FF80D4
:1000B0000C94FF800C94FF800C94FF800C94FF80C4
:1000C0000C94FF800C94FF800C94FF800C94FF80B4
:1000D0000C94FF800C94FF800C94FF800C94FF80A4
:1000E0000C94FF800C94FF800C94FF800C94FF8094
:1000F0000C94FF800C94FF800C94FF800C94FF8084
:100100000C94FF800C94FF800C94FF800C94FF8073
:100110000C94FF800C94FF800C94FF800C94FF8063
:100120000C94FF800C94FF800C94FF800C94FF8053
:100130000C94FF800C94FF800C94FF800C94FF8043
:100140000C94FF800C94FF800C94FF800C94FF8033
:100150000C94FF800C94FF800C94FF800C94FF8023
:100160000C94FF800C94FF800C94FF800C94FF8013
:100170000C94FF800C94FF800C94FF800C94FF8003
:100180000C94FF800C94FF800C94FF800C94FF80F3
:100190000C94FF800C94FF800C94FF800C94FF80E3
:1001A0000C94FF800C94FF800C94FF800C94FF80D3
:1001B0000C94FF800C94FF800C94FF800C94FF80C3
:1001C0000C94FF800C94FF8058426A01E686ED860D
:1001D00015873D872A87EF86508711241FBECFEFF2
:1001E000DFE2DEBFCDBF21E2A0E0B0E201C01D92A0
:1001F000A130B207E1F70E94CE830C9455870C948E
:1002000000803BB78BBFFB0186913BBF08953BB796
:100210008BBFFB01879196913BBF089542E097C049
:1002200041E095C08093C00188278093C1018093ED
:10023000C20147E07CD0CB0108958093C40148E01F
:1002400076C08091D00108953BB748E10C94AC8111
:100250003BB74AE10C94AC813BB7882799278BBF09
:1002600040E20C94AC813BB78BBFCB0142E20C94D3
:10027000AC813BB70B0143E20C94AC81EE27FF2726
:1002800019BEDC0143E24093CA0150E82DE90D900C
:100290001D9020933400E89532965A95C1F71124A9
:1002A00008953BB76BBFFA0119BEDC0140E04093F3
:1002B000CA0150E0879197918D939D935A95D1F7FC
:1002C0003BBF08953BB78BBFCB0144E20C94AC819C
:1002D0003BB78BBFCB0145E20C94AC813BB746E208
:1002E0000C94AC813BB78BBFCB014AE20C94AC8140
:1002F0003BB78BBFCB014CE20C94AC813BB78BBFBF
:10030000CB014DE20C94AC8148E311C049E30FC02E
:1003100028ED2093340021E02093CC010895209112
:10032000CF0127FDFCCF22272093CA0108954093D7
:10033000CA0128ED31E0209334003093CB01609165
:10034000C4017091C5018091C60199270895FC01EF
:100350004093CA0184910895FC014093CA012DE99C
:1003600020933400E89511243BBF08959C01262773
:10037000622F62956227062E669566956025062E89
:10038000669560256770022E232F66950794679502
:10039000302D26270694679530252627C901089514
:1003A00090910020923050F48091A10887FFFACFFD
:1003B00081E0809300208091A0080895FFCF909164
:1003C0000020923058F48093A0088091A10886FF05
:1003D000FCCF8091A10880648093A10808950E94B9
:1003E000D081382F0E94D081282FC9010895AF9263
:1003F000BF92CF92DF92EF92FF920F931F93CF9312
:10040000DF931F92CDB7DEB77C01262F5A01A89546
:1004100041E0C42E40E2D42E00E010E00E151F058E
:1004200028F429830E94D081298101C08FEFF60131
:1004300081936F010F5F1F4F0115F1E01F0771F7E7
:100440002534B1F4A70161E070E2F501808191816A
:100450000E946686F50100811181228133810E0D93
:100460001F1D211D311D008311832283338334C05E
:10047000263411F0253571F5F50180819181A28135
:10048000B381F694E794AC01BD014E0D5F1D611D73
:10049000711D4083518362837383263461F4BC01F0
:1004A000CD01660F771F881F991F21E041E050E2C0
:1004B0000E94AC8511C0253579F481E090E20E945C
:1004C0003E810E9424810E948F810E9428810E9487
:1004D0008F8102C08FE301C08DE00F90DF91CF913B
:1004E0001F910F91FF90EF90DF90CF90BF90AF9052
:1004F00008959F92AF92BF92CF92DF92EF92FF92B8
:100500000F931F93CF93DF937C01962EEA0185E42E
:10051000681316C0A70161E070E2888199810E948A
:10052000308688819981AA81BB818E0D9F1DA11D76
:10053000B11D88839983AA83BB83C1E0D0E255C0F3
:1005400086E4681731F085E5681719F080E56813CF
:1005500052C088819981AA81BB81880F991FAA1FE7
:10056000BB1F88839983AA83BB836701A12CB12C0D
:1005700086E4981207C0688179818A819B810E94F4
:1005800001810EC085E5981205C0888199810E947D
:10059000108106C080E598120AC088810E940E81F1
:1005A000F501EF5FFF4D80838FEFA81AB80A0E9414
:1005B0008F81088119812A813B810F5F1F4F2F4F47
:1005C0003F4F088319832A833B8381E0C81AD108EF
:1005D00079F63695279517950795088319832A8309
:1005E0003B83ABCF89910E94DF81CE018150904245
:1005F0008E159F05BCF3DF91CF911F910F91FF9056
:10060000EF90DF90CF90BF90AF909F9008958F9222
:100610009F92AF92BF92CF92DF92EF92FF920F9391
:100620001F93CF93DF936B017C0149015A0100E0D6
:1006300011E0C0E0D0E01FC0011581E0180761F4AF
:10064000B701A60181E090E20E9451818FEFD81A94
:10065000E80AF80A00E010E0F801EF5FFF4D608162
:10066000CE010E94B681EC010F5F1F4F81E0881A16
:100670009108A108B10881149104A104B104E1F624
:10068000CE01DF91CF911F910F91FF90EF90DF90FE
:10069000CF90BF90AF909F908F900895CF92DF92B0
:1006A000EF92FF92CF93DF9340E05FEF60E070E066
:1006B00081E090E20E9451818091FB20883509F011
:1006C00066C08091FC20823409F061C08091FD20D9
:1006D000893409F05CC08091FE20863409F057C04F
:1006E0009091FF2080E0209100217C01E22A2AEFF6
:1006F0003FE740E050E060E070E880E090E00E947A
:100700000783C6E0D0E06FEF0E94B6812197D9F74A
:10071000E816F90641F0DF91CF91FF90EF90DF905E
:10072000CF900C94EF86C12CD12C7601D2E0CFEF84
:10073000D0936706B701A60150586F4F7F4F81E0F5
:1007400090E20E945181C1148FE7D806E104F104C0
:1007500061F4C093FB20C093FC20C093FD20C093A4
:10076000FE20C093FF20C093002121E041E050E231
:10077000C701B6010E94AC858FEFD81AE80AF80AC3
:10078000C11480E8D806E104F10491F6C4CFDF91EA
:10079000CF91FF90EF90DF90CF900895CF92DF92AE
:1007A000EF92FF920F931F93CF93DF93CDB7DEB7F6
:1007B0002597CDBFDEBF19821A821B821C82109240
:1007C000002081E08093680082E08093610680933E
:1007D00065060E94C58688E18093520640910020FC
:1007E0003EEF8BED91E0A0E0B0E052E00097A10574
:1007F000B10521F00197A109B1090EC05093670618
:1008000030FF05C08BED91E0A0E0B0E004C084E0D3
:1008100090E0A0E0B0E031502091A10827FF03C094
:1008200041E021E001C020E0A895222321F040937F
:10083000002021E004C03111D9CF409300202D8346
:100840000E94DC8600E010E0B2E0DB2E67C1D092AF
:1008500067060E94D081A895813611F489E558C1B8
:10086000813429F40E94EF81A0E0B0E073C08834A5
:1008700039F40E94D081A82F0E94EF81BB276AC063
:10088000853661F40E942C8101C0A8958091CF012A
:100890008770D9F70E94BD868DE03AC1823629F46F
:1008A00089E50E94DF8181E0BCC0823489F40E9426
:1008B000EF81C82E082F192F9D830E94D081AE0191
:1008C0004F5F5F4F682F8C2D9D810E94F78120C163
:1008D000873689F40E94EF81C82E082F192F9D8337
:1008E0000E94D081AE014F5F5F4F682F8C2D9D819C
:1008F0000E9479820FC1823581F469817A818B816E
:100900009C81660F771F881F991F0E940781C82E40
:10091000892F0E94DF818C2D48C0833629F40E94E4
:10092000D081082F10E0B8CF8334C9F40E94D08161
:10093000F82EE12C0E291F2989819A81B801880F90
:10094000991F0E94398189819A81AB81BC8101966E
:10095000A11DB11D89839A83AB83BC839DCF8D3646
:10096000A1F489819A81AB81BC81811520E892072D
:10097000A105B10508F0CBC0BC01CD01660F771F02
:10098000881F991F0E94628187CF843441F40E949E
:10099000D081682F89819A810E940E8608C0843692
:1009A00091F489819A810E94E8850E94DF81898182
:1009B0009A81AB81BC810196A11DB11D89839A8367
:1009C000AB83BC83A7C08C3629F40E94D0810E94DF
:1009D0001D8162CF823719F40E94218199C086342B
:1009E00011F480E007C08E3411F481E003C081353A
:1009F00021F482E00E9412818BC0803509F44CCF33
:100A00008C3409F449CF853429F48DE00E94DF81CC
:100A100020E081C0803711F483E57AC0843729F45F
:100A20008BE70E94DF8180E073C0982F9857923047
:100A300010F0843519F40E94D0812ECF8335A1F4B3
:100A400088E50E94DF8182E40E94DF818FE60E94B8
:100A5000DF818FE60E94DF8184E70E94DF818BE2E5
:100A60000E94DF818BE254C0863529F481E30E9425
:100A7000DF8187E34DC0833741F48AE40E94DF8140
:100A800086E90E94DF818EE143C08836F1F50E943D
:100A9000D081863431F128F4813441F18234E9F493
:100AA00005C0813661F08437C1F40EC020E030E12A
:100AB00040E050E060E070E081E090E01EC020E0A7
:100AC00030E840E050E016C020E030E840E050E080
:100AD00060E070E880E090E010C08FE30E94DF816A
:100AE000B6CE20E030E141E050E004C020E030E04C
:100AF00041E050E060E070E0CB010E940783C82E27
:100B0000892F0E94DF818C2D03C08B3119F08FE378
:100B10000E94DF8121E02D830E948F812D81211190
:100B200096CE0E944E830E94D2861092520682E098
:100B300080936206809366060C94000080E090E04B
:100B40002596CDBFDEBFDF91CF911F910F91FF9012
:100B5000EF90DF90CF900895CF92DF92EF92FF92C7
:100B6000CF93DF931F92CDB7DEB76B017C01CA0133
:100B700029830E943E812981C701B601222319F0F1
:100B80000E94688102C00E9462810F90DF91CF9124
:100B9000FF90EF90DF90CF900C948F81EBECF1E021
:100BA00021E030E088ED90E084BF208308958091BB
:100BB000CF0187FDFCCF08950E94D7858091CF019A
:100BC00081FF05C086E38093CA010C94CE85089509
:100BD000EF92FF921F93CF93DF931F92CDB7DEB7B3
:100BE000192F89830E94D78580ECE82EFF24F39487
:100BF0008981F7018083812F90E08F71992781830C
:100C0000128286E082870E94CE85F70184810F9050
:100C1000DF91CF911F91FF90EF9008951F93CF9395
:100C2000DF9300D0CDB7DEB7192F69838A830E9486
:100C3000DC85E0ECF1E093E392878A818083812F69
:100C400090E08F719927818312826981648385E3A3
:100C500082870F900F90DF91CF911F910C94CE85DA
:100C6000BF92CF92DF92EF92FF920F931F93CF9399
:100C7000DF93EC018B017A011092C2010E94D785AB
:100C80006801CE0CDF1C26E0B22E12C0C093C0015A
:100C90008D2F99278F7199278093C101B092CA0136
:100CA0000E94CE858091C401F80181938F01219625
:100CB0000C151D0559F7C701DF91CF911F910F91B9
:100CC000FF90EF90DF90CF90BF9008959F92AF92EA
:100CD000BF92CF92DF92EF92FF920F931F93CF9329
:100CE000DF937B01B42EC52E9C012F713327D22EAA
:100CF0008C01021B130B0E94DC850E94D78583E3C5
:100D00008093CA011092C1011092C201CB2DDC2D3B
:100D100045E3A42E53E3952E20C0D092C001F701E5
:100D200081917F018093C401219721F0D394F0E257
:100D3000DF1213C00093C001212F33272F713327F7
:100D40002093C101A092CA010E94CE85005E1F4F70
:100D50000E94D7859092CA01D12C2097F1F68B2D55
:100D60009C2DDF91CF911F910F91FF90EF90DF901D
:100D7000CF90BF90AF909F9008950E94D78580E359
:100D8000E0ECF1E082870C94CE8588E0E0E4F6E0C8
:100D90008183E0EAF8E08AE1868380ED87838CE155
:100DA00084830895E0EAF8E014821682178288E0CE
:100DB000E0E4F6E08283089588ED84BF8FE18093BC
:100DC00080008091820080FDFCCF089527E031E013
:100DD000FC012083318380E0089582E00895CF9262
:100DE000DF92EF92FF92CF93CFB7F894C12C80E8B7
:100DF000D82EE12CF12CC701B6010E9433810E944C
:100E00008F818FEFD81AE80AF80AC114D10481E063
:100E1000E806F10481F71092CA01CFBF80E0CF91BC
:100E2000FF90EF90DF90CF900895CF93CFB76130D0
:100E3000710521E08207910550F4F8940E943381F6
:100E40000E948F811092CA01CFBF80E001C083E071
:100E5000CF910895CF93CFB7F8940E943E810E941E
:100E600024810E948F810E9428810E948F8110928C
:100E7000CA01CFBF80E0CF910895CF93CFB7613043
:100E8000710531E08307910540F4F8940E94AC8528
:100E90001092CA01CFBF80E001C083E0CF910895D6
:0E0EA00070588F4F9F4F0C943D87F894FFCFF2
:00000001FF
