:020000040000FA
:20000000F4C0000011C1000041C300000DC100000BC1000009C1000007C1000005C1000064
:2000200003C1000001C10000FFC00000FDC00000FBC00000F9C000000C9427230C94542349
:200040000C9481230C94AE230C94DB230C9408240C9435240C9462240C948F240C94BC248F
:20006000E3C000000C9404200C943F20DDC00000DBC00000D9C00000D7C00000D5C000001D
:20008000D3C00000D1C00000CFC00000CDC00000CBC00000C9C00000C7C00000C5C0000000
:2000A000C3C00000C1C00000BFC00000BDC00000BBC00000B9C00000B7C000000C94F72519
:2000C0000C9424260C9451260C947E260C94AB260C94D826A9C00000A7C00000A5C0000097
:2000E000A3C00000A1C000009FC000009DC000009BC0000099C0000097C0000095C0000020
:2001000093C0000091C000008FC000008DC000008BC0000089C0000087C0000085C000007F
:2001200083C0000081C000007FC000007DC000007BC000000C94E9240C9416250C944325F4
:200140000C9470250C949D250C94CA256DC000006BC0000069C0000067C0000065C00000AC
:2001600063C0000061C000005FC000005DC000005BC0000059C0000057C0000055C000009F
:2001800053C0000051C000004FC000004DC000004BC0000049C0000047C0000045C00000FF
:2001A0000C94293741C000003FC000003DC000000C9405270C9432270C945F270C948C2704
:2001C0000C94B9270C94E6274445425547205541525420494E49543A200042414400474F24
:2001E0004F4400000E060C04000011241FBECFEFDFE2DEBFCDBF16E2A0E0B0E2E4E5F0E7E4
:2002000000E00BBF02C007900D92A034B107D9F728E2A0E4B6E201C01D92AB3FB207E1F7CF
:200220000E9407320C942838EBCE60E476E280E092E00E94FF2146E456E261E080E092E085
:200240000E943922E0E4F6E2908181818F7C80628183917E9083128284E08383BF0180E0C1
:2002600092E00C94B621803128F591E090934626880F880F880F8093472646E456E261E0DF
:2002800080E092E00E941F229FB7F894809100028460809300029FBF80910602982F91707C
:2002A00080FFFACF909306022091240230912502C9010895109246268051880F880F880F01
:2002C00080934726DACF80E092E00C9490218F929F92BF92CF92DF92EF92FF920F931F93F7
:2002E000CF93DF9380E4882E86E0982E12E0D40115961C93159711961C931197E0EBF0E07E
:20030000108300E250960C935097CC24C3941296CC921297C08278E150967C93C0E0D6E020
:2003200098E0D92EDA82D082188A20E236E0D90112961C931297108350967C9350971296E5
:200340000C931297008350967C9350971296DC921297D08250967C931A831083788B0A8330
:200360000083788B40EA56E060E1DA0112966C931297608350967C9350976A836083788B99
:2003800080E8E82EEA82E082788B94E0F92E1296FC921297F08250966C93509712960C930F
:2003A0001297008350967C9350971296EC921297E08250967C93509780E4B82E1296BC92E8
:2003C0001297B08250967C93FA82F082788BD90112966C931297608350967C9380E696E07E
:2003E000DC0112960C931297008350967C93509712966C931297608350967C93BA82B0823B
:20040000188AE901CA82C082188ABA82B082188AEA82E082188AA0E8B6E01596CC921597CD
:200420001196CC921197C08250961C925097EA01CD82C982C082188A16966C9316971296E9
:200440006C931297608350961C92509711961C931197108350961C9250971596DC921597C5
:200460001196DC921197D08250961C9250971596FC9215971296FC921297F08250961C9228
:20048000509716960C93169711960C931197008350961C9250971D8319831083188AEC0133
:2004A000CD82C982C082188A1D8319831083188AE901FA82F082788BE401DD82D982D08281
:2004C000188AFD82FA82F082188A1596EC9215971196EC921197E08250961C92DC0115964B
:2004E000DC9215971196DC921197D08250961C9250971296FC921297F08250961C9250978C
:200500001296EC921297E08250966C936A836083688B0A830083688BBA82B082688BEA8232
:20052000E082688BDF91CF911F910F91FF90EF90DF90CF90BF909F908F90089581E08093BC
:20054000B00080E18093500680E090E001968A369105E1F78091480691E09093B000109247
:20056000500681700895EF92FF920F931F93CF93DF931F92CDB7DEB7082F7A0169830E9453
:20058000A630182F6981611142C089E3E8168CE0F80608F047C083E0F82E40E060E081E0C3
:2005A0000E94CA1D4AEA56E460E170E04150510961097109D9F740E060E080E00E94CA1DCB
:2005C0004AEA56E460E170E04150510961097109D9F7FA9411F780911628881F8827881F9B
:2005E000909117289F73990F982B81E069F10E94241D40E060E080E0112371F00F90DF911C
:20060000CF911F910F91FF90EF900C94CA1D41E061E081E01111F2CF0111F0CF40E060E0BE
:2006200080E0ECCFE3E4EE16ECE0FE0648F0FAE8EF16FCE0FF0678F440E061E081E0EACF1D
:2006400040E060E081E0E6CF80E00E94241D40E060E080E0D1CF41E060E080E0DBCF9FB7C0
:20066000F89481E080934A062FB7F8948093B000E0E4F6E08089887F808B80898160808B4B
:200680002FBF82E0809349069FBF08951F920F920FB60F9211240BB60F922F933F934F93E8
:2006A0005F936F937F938F939F93AF93BF93CF93EF93FF93CFB7F89480914C0680FF03C01F
:2006C00081E080934C0641E061E081E00E94CA1D809148008E708430A9F0CFBFFF91EF91C6
:2006E000CF91BF91AF919F918F917F916F915F914F913F912F910F900BBE0F900FBE0F90D7
:200700001F901895809148008E7F8093480061E089E790E00E945322FFCFCF93DF93CDB75E
:20072000DEB72897CDBFDEBF40EF59E462E070E089E198E20E94CE1E0E94062188E02CD19E
:20074000182F89E029D18111EFC089E198E20E94E71E8111B1C080E01FD1882309F470C0F8
:2007600011E0809142207FDD8D839E83809143207ADD8F8398879E012F5F3F4FAE014B5F78
:200780005F4F6EE870E284E490E20E947E1B6F8178858D819E810E947F2060E08BE890E26E
:2007A0000E94931F6B817C8189819A810E947F2085E295E20E94C71F2B813C8137FD98C03B
:2007C000232B09F4A0C0FF24F39400E0809150204ADD8D839E838091512045DD8F83988736
:2007E0009E012F5F3F4FAE014B5F5F4F6EE870E282E590E20E947E1B6F8178858D819E8161
:200800000E947F2060E08BE890E20E94931F6B817C8189819A810E947F2085E295E20E944F
:20082000C71F2B813C8137FD60C0232B09F464C0FF24F3944F2D612F802F0E94CA1D7CCF6D
:2008400081E0AAD081118CCF82E0A6D0811188CF83E0A2D0811184CF84E09ED0811180CFA2
:2008600085E09AD081117CCF86E096D0811178CF87E092D0811174CF88E08ED0811170CFF2
:2008800089E08AD081116CCF8BE086D0811168CF8AE082D0811164CF8DE07ED0811160CF41
:2008A0008CE07AD081115CCF8EE076D0811158CF8FE072D0182F55CF89E198E20E94161F81
:2008C00040E060E080E00E94CA1D80911628881F8827881F909117289F73990F982B81E045
:2008E00009F480E00E94241D36CF11E001E0A2CFF12C11E001E06ACF29813A8112161306A2
:2009000054F401E097CF29813A81F12C121613063CF401E05BCF232B09F48CCF11E08ACF5A
:20092000232B99F400E052CF112309F40ECF8AEA90EBA8E2B0E00197A109B109E1F761E0AF
:2009400089E790E00E945322FFCF11E000E03ECF80E00E94A11DC3E0D0E040E060E081E020
:200960000E94CA1D8AEA96E4A0E1B0E00197A109B109E1F740E060E080E00E94CA1D8AEA5E
:2009800096E4A0E1B0E00197A109B109E1F7219721F70E941D2DC1DE94E0899FF0011124DB
:2009A000E050F04E8081A82FA695A695A69590E2A99FD0011124BA5F18962C91382F3770EE
:2009C00081E090E0032E01C0880F0A94EAF7282381E09381211103C0911103C008959111E5
:2009E000FDCF80E008958093492690934A260C94E130CF93E0914926F0914A2690E09C0128
:200A0000220F331F220F331F220F331F280F391FE20FF31F613009F445C0C481C11102C04F
:200A2000CF9108958C2F0E944C1B81EA0E94E32C81E00E94E32C80E00E94E32C80E00E94B4
:200A4000E32C8C2F0E94E32C80E00E94E32C80E00E94E32C80E00E94E32C80E00E94E32CD7
:200A600080E00E94E32C81EA0E94E32C81E00E94E32C80E00E94E32C80E00E94E32C80E0B5
:200A80000E94E32C80E00E94E32C80E00E94E32C80E00E94E32C80E00E94E32C80E0CF91A1
:200AA0000C94E32CC681BACFFC0160837183458312821482828183830895FC019FB7F8946C
:200AC000248185812817B0F48281A081B181A80FB11D6C938F5F828384818F5F848322811E
:200AE0008581281720F0128281E09FBF089581E09FBF089580E09FBF0895FC019FB7F8941B
:200B000084818823C1F08381A081B181A80FB11D2C91DB012C938F5F83838481815084836F
:200B200023818581281720F0138281E09FBF089581E09FBF089580E09FBF08951F93CF9300
:200B4000DF93FC011FB7F89433818481841728F5D481DD2309F45DC080819181DC01A30F42
:200B6000B11D2C91222309F44EC02581C0E006C0DC01A30FB11D5C91552389F03F5F32176C
:200B800008F030E0CF5FCD13F3CF80E01FBF811112C0DF91CF911F910895D42FDACF2C2FB7
:200BA00030E02F5F3F4F50E081E0241735076CF71FBF882371F35C2F5F5F59F3DB0190E0D0
:200BC00019C02381C081D181C20FD11D48814C932F5F2383248121502483438125814217EA
:200BE00080F0138221E03FBF222399F29F5F1196591779F23FB7F89424812111E2CF20E097
:200C0000F2CF21E0F0CF242F30E081E0223031050CF480E0C0E0BACF81E08093A50680E0FF
:200C200090E00196853D24E19207D9F781E08093A60680E090E00196853D24E19207D9F7C6
:200C400081E08093A50680E090E00196853D24E19207D9F781E08093A60680E090E0019657
:200C6000853D24E19207D9F781E08093A50680E090E00196853D24E19207D9F782E990E2B1
:200C80000C94002D61E088E990E20E94931F80E090E00196853520ED9207D9F70C94AF1316
:200CA0008BE496E287D361E088E990E20E94931F109253260895CF938BE496E274D3909112
:200CC0004B26892F8F7092959F70C82F8A300CF0A6C0C05D892F9A300CF0A6C0805D0E9423
:200CE000821F8C2F0E94821F90914C26892F8F7092959F70C82F8A300CF0B2C0C05D892FE1
:200D00009A300CF0ABC0805D0E94821F8C2F0E94821F90914D26892F8F7092959F70C82F0C
:200D20008A300CF099C0C05D892F9A300CF092C0805D0E94821F8C2F0E94821F90914E2604
:200D4000892F8F7092959F70C82F8A300CF080C0C05D892F9A300CF079C0805D0E94821FC5
:200D60008C2F0E94821F90914F26892F8F7092959F70C82F8A300CF067C0C05D892F9A307F
:200D80000CF060C0805D0E94821F8C2F0E94821F90915026892F8F7092959F70C82F8A30E4
:200DA0000CF04EC0C05D892F9A300CF047C0805D0E94821F8C2F0E94821F90915126892F19
:200DC0008F7092959F70C82F8A30B4F5C05D892F9A3084F5805D0E94821F8C2F0E94821F4E
:200DE00090915226892F8F7092959F70C82F8A30FCF0C95A892F9A30CCF0895A0E94821F49
:200E00008C2F0E94821F80E00E94821F61E088E990E20E94931F10925326CF910895C95A7E
:200E2000892F9A300CF45ACF895A59CF805DE6CFC05DE0CF895ACFCFC95AC9CF895AB8CFF8
:200E4000C95AB1CF895A9FCFC95A98CF895A86CFC95A7FCF895A6DCFC95A66CF895A54CFEE
:200E6000C95A4DCF1F93CF93DF93FC0180818823A9F19181992391F1228121112FC0806274
:200E8000906281369CF58053282F2295207F892F91369CF18755820F64E576E292D2C4E571
:200EA000D6E20EC0195A892F9A30B4F0895A0E94821F812F0E94821F87E2C131D80701F1CE
:200EC0009991892F8F7092959F70182F8A3054F7105D892F9A3054F7805DE9CF61E08BE92B
:200EE00090E2DF91CF911F910C94931F8755282F2295207F892F91366CF68053820FCCCF45
:200F000080E00E94821F61E088E990E20E94931F10921127DF91CF911F910895FC018081C1
:200F20008823C1F091819923A9F02281211112C08062906281369CF480538295807F91367C
:200F40009CF09755980F9093532661E088E990E20C94931F61E08BE990E20C94931F87550B
:200F60008295807F91366CF79053980F9093532661E088E990E20C94931FFC0190819923CB
:200F8000E1F081818823C9F02281211116C0906280629136BCF490539295907F8136BCF0A8
:200FA0008755890F64E576E215D261E088E990E20E94931F10921127089561E08BE990E21F
:200FC0000C94931F97559295907F81364CF78053890FE8CFFC0180818823C1F09181992359
:200FE000A9F02281211112C08062906281369CF480538295807F91369CF09755980F9093A4
:20100000112761E088E990E20C94931F61E08BE990E20C94931F87558295807F91366CF78D
:201020009053980F9093112761E088E990E20C94931FCF93DF93C82FD92FFE0101900020D2
:20104000E9F73197EC1BFD0B4E2FE0FD35C0EE23D1F120915326283078F5DC01119630E034
:201060000FC097559295907F8136DCF08755890F80832F5F3E5F3417D8F412962830C1F092
:20108000E22FF0E0E55BF94DED012197988190628C91806291362CF790539295907F81367F
:2010A0002CF78053890F80832F5F3E5F341728F320935326431739F061E08BE990E2DF91C8
:2010C000CF910C94931F61E088E990E2DF91CF910C94931FFC0101900020E9F73197E81BBF
:2010E000F90B6E2FE0FD34C0EE23B9F1409111274D3B70F550E00EC037553295307F213676
:20110000E4F02755230F20834F5F5E5F5617E0F44D3BD1F0E42FF0E0EC5AF94DDC01A50FB5
:20112000B11D3C91306211962C912062313624F730533295307F213624F72053230F208367
:201140004F5F5E5F561720F340931127651729F061E08BE990E20C94931F61E088E990E267
:201160000C94931FEF92FF920F931F93CF93DF93CDB7DEB7C354D109CDBFDEBF60E4CE019D
:2011800001960E94FE1F81110BC0CD5BDF4FCDBFDEBFDF91CF911F910F91FF90EF90089552
:2011A000898122968FAF22979A8123969FAF239724961FAE2497992787FD909581549F4D2E
:2011C0000E94631BBE016F5B7F4F81EA90E20E94F037009709F473C0BE016F5B7F4F84EA66
:2011E00090E20E94F037009709F484C0BE016F5B7F4F87EA90E20E94F037009709F481C004
:20120000BE016F5B7F4F8AEA90E20E94F037009709F47EC0BE016F5B7F4F8DEA90E20E9414
:20122000F037009709F47BC0BE016F5B7F4F80EB90E20E94F037009709F478C0BE016F5B66
:201240007F4F83EB90E20E94F037009709F475C0BE016F5B7F4F86EB90E20E94F0370097B4
:2012600009F472C0BE016F5B7F4F89EB90E20E94F037009709F46FC0BE016F5B7F4F8CEBA8
:2012800090E20E94F037009709F46CC0BE016F5B7F4F8EE990E20E94F037009709F469C08D
:2012A00086ED90E20E94511BCE018F5B9F4F0E94631B61E08BE990E20E94931F66CFA1EA39
:2012C000EA2EA0E2FA2E00E010E087EC90E20E94511BC7010E94631BF801EE0FFF1FEE0F90
:2012E000FF1FE551FF4D0280F381E02DCE01039609954BCFF4EAEF2EF0E2FF2E01E010E060
:20130000E4CFE7EAEE2EE0E2FE2E02E010E0DDCF7AEAE72E70E2F72E03E010E0D6CF6DEA02
:20132000E62E60E2F62E04E010E0CFCF50EBE52E50E2F52E05E010E0C8CF43EBE42E40E250
:20134000F42E06E010E0C1CF36EBE32E30E2F32E07E010E0BACF29EBE22E20E2F22E08E012
:2013600010E0B3CF9CEBE92E90E2F92E09E010E0ACCFBEE9EB2EB0E2FB2E0AE010E0A5CFA7
:2013800061E088E990E20C94931FFADF80E090E00196853520ED9207D9F761E089E790E046
:2013A0000E945322FFCF48E050E0BC0180E090E00C94592248E050E0BC0180E090E00C94C3
:2013C0006E2220EC829FC00111244DEB50E080960C94592220EC829FC00111244DEB50E036
:2013E00080960C946E22CF93C82F8A3009F466C048E050E061E178E280E090E00E94592290
:201400008091162884FF42C04DEB50E063E471E280E290E00E946E224DEB50E068E072E2EE
:2014200080EE90E00E946E224DEB50E062E873E280EA91E00E946E224DEB50E06FE374E278
:2014400080E692E00E946E224DEB50E065EC72E280E293E00E946E2288E0E0E0F2E2A1E1F0
:20146000B8E201900D928A95E1F7809116288F7E8093162848E050E061E178E280E090E03A
:201480000E946E220E9438300E94862D8CE191E20E94511B8C2F805D0E944C1B85E295E24E
:2014A0000E94511B20ECC29FC00111244DEB50E06EE378E28096CF910C94592287E191E23C
:2014C0000E94631B45DA94CF853089F140F0883049F188F0893051F08A30F9F008958230B5
:2014E00009F190F0833059F08430C1F741E060E081E00C94CA1D863059F0873079F740E07B
:2015000061E081E00C94CA1D882389F0813031F740E060E081E00C94CA1D40E060E080E09D
:201520000C94CA1D40E061E080E00C94CA1D41E060E080E00C94CA1DCF9389E02DDA882317
:2015400031F0CAE08C2FC0DF8C2FCF91089584E023DA882331F0C0E08C2FB6DF8C2FCF9176
:20156000089585E019DA882311F0C1E0EBCF86E013DA882311F0C2E0E5CF87E00DDA882321
:2015800011F0C3E0DFCF8AE007DA882311F0C4E0D9CF81E001DA882311F0C5E0D3CF83E024
:2015A000FBD9882311F0C6E0CDCF82E0F5D9882311F0C8E0C7CFF0D9882311F0C7E0C2CFA2
:2015C0008BE0EAD9882311F0C9E0BCCFC0911628CF70B8CFCF93DF93CDB7DEB72A97CDBF6E
:2015E000DEBF80931327909314278AE0E9E6F0E2DE01119601900D928A95E1F78AE0FE0182
:201600003196A1E2B8E201900D928A95E1F78AE0E1E2F8E2ABE2B8E201900D928A95E1F76A
:201620002A96CDBFDEBFDF91CF910C941D31CF92DF92EF92FF920F931F93613009F4B2C0CB
:20164000611124C041E050E060E070E0082E04C0440F551F661F771F0A94D2F74095509556
:20166000609570950091152710911627209117273091182704231523262337230093152705
:20168000109316272093172730931827813139F01F910F91FF90EF90DF90CF9008958091C2
:2016A000152790911627A0911727B09118270091192710911A2720911B2730911C2784FD76
:2016C00092C00E7F85FF92C0026086FF92C0086087FF92C0006193FF92C0006492FF92C050
:2016E00000680093192710931A2720931B2730931C2740911D2750911E2760911F2770915D
:20170000202795FFA1C0416094FF8CC0426091FF87C0446090FF82C0486096FF7DC0406203
:20172000C12C20E8D22EEE24EA94FE2CC822D922EA22FB22CD28CE28CF2809F47BC040642E
:2017400040931D2750931E2760931F277093202780FF6AC01092402080E0809328280093C6
:20176000292840932A2890913228981305C080913328081709F472C080912828909129287B
:20178000A0912A288093322890933328A093342881E0809312271F910F91FF90EF90DF90D2
:2017A000CF90089501E010E020E030E0082E04C0000F111F221F331F0A94D2F7409115270C
:2017C000509116276091172770911827402B512B622B732B4093152750931627609317270A
:2017E0007093182753CF016085FD6ECF0D7F86FD6ECF077F87FD6ECF0F7E93FD6ECF0F7BEE
:2018000092FD6ECF0F770093192710931A2720931B2730931C276DCF4F7D82CF477F7DCF59
:201820004B7F78CF4D7F73CF82FF10C086E08093402093CF4F7B40931D2750931E27609301
:201840001F277093202784CF4E7F5ECF81FD0BC083FD0DC088E0809340207FCF809134287F
:2018600048138ACF15CF84E08093402076CF82E08093402072CF1F93CF93DF93CDB7DEB7FF
:201880002697CDBFDEBF182F9B01E82FF0E086E1189FD0011124AF56BF4F60911327709135
:2018A00014276A0F7B1F29833A834B835C83EE0FFF1FED5CFE4D9E012B5F3F4FAE014F5F01
:2018C0005F4F808191810E94C61B8D8111110CC0809324288E81809325282696CDBFDEBF15
:2018E000DF91CF911F910895809326289E819093272830912E28209124283217D1F08091AA
:20190000242890912528A0912628B091272880932E2890932F28A0933028B093312881E093
:20192000809312272696CDBFDEBFDF91CF911F91089530912F28209125283213E0CF20919E
:2019400030288213DCCF809131289813D8CFC5CFCF93DF93C1E2D8E288810E94E32C8981AA
:201960000E94E32C8A810E94E32C8B810E94E32C8C810E94E32C8D810E94E32C8E810E940F
:20198000E32C8F810E94E32C88850E94E32C8985DF91CF910C94E32CCF93DF93CDB7DEB73F
:2019A0002A97CDBFDEBF80932227909323278AE0E3E7F0E2DE01119601900D928A95E1F7C1
:2019C0008AE0FE013196A1E2B8E201900D928A95E1F78AE0E1E2F8E2ABE2B8E201900D9235
:2019E0008A95E1F72A96CDBFDEBFDF91CF910C943B310F931F93613009F48DC0611124C0A6
:201A000041E050E060E070E0082E04C0440F551F661F771F0A94D2F74095509560957095EE
:201A2000009124271091252720912627309127270423152326233723009324271093252701
:201A40002093262730932727813119F01F910F9108958091242790912527A0912627B09145
:201A600027272091282784FD77C02E7F322F85FF77C0326086FF77C0386087FF77C0306163
:201A800093FF77C0306492FF77C03068309328272091292795FF77C0216094FF77C02260DE
:201AA00091FF77C0246090FF77C0286096FF77C02062AC01BD0144275078452B462B472B4E
:201AC00009F477C020642093292780FF77C01092412080E0809328283093292820932A28B6
:201AE00090913228981305C080913328381709F473C08091282890912928A0912A288093A7
:201B0000322890933328A093342881E0809321271F910F91089501E010E020E030E0082E9E
:201B200004C0000F111F221F331F0A94D2F740912427509125276091262770912727402B67
:201B4000512B622B732B4093242750932527609326277093272778CF2160322F85FD89CFFD
:201B60003D7F86FD89CF377F87FD89CF3F7E93FD89CF3F7B92FD89CF3F773093282720917D
:201B8000292795FD89CF2E7F94FD89CF2D7F91FD89CF2B7F90FD89CF277F96FD89CF2F7D17
:201BA000AC01BD0144275078452B462B472B09F089CF2F7B2093292780FD89CF82FF04C01C
:201BC00086E08093412086CF81FD0BC083FD0DC088E0809341207ECF80913428821389CFBD
:201BE00035CF84E08093412075CF82E08093412071CF1F93CF93DF93CDB7DEB72697CDBFC7
:201C0000DEBF182F9B01E82FF0E086E1189FD0011124AF56BF4F60912227709123276A0F28
:201C20007B1F29833A834B835C83EE0FFF1FE95CFE4D9E012B5F3F4FAE014F5F5F4F808186
:201C400091810E94C61B8D8111110CC0809324288E81809325282696CDBFDEBFDF91CF9170
:201C60001F910895809326289E819093272830912E28209124283217D1F080912428909189
:201C80002528A0912628B091272880932E2890932F28A0933028B093312881E08093212722
:201CA0002696CDBFDEBFDF91CF911F91089530912F28209125283213E0CF2091302882137A
:201CC000DCCF809131289813D8CFC5CFCF93DF93C1E2D8E288810E94E32C89810E94E32C63
:201CE0008A810E94E32C8B810E94E32C8C810E94E32C8D810E94E32C8E810E94E32C8F811E
:201D00000E94E32C88850E94E32C8985DF91CF910C94E32C80932A2790932B270C94E1303D
:201D20007F928F929F92AF92BF92CF92DF92EF92FF920F931F93CF93DF93CDB7DEB72697CC
:201D4000CDBFDEBF613009F4C5C36111E3C3C12CD12C7601C39404C0CC0CDD1CEE1CFF1CBA
:201D60008A95D2F7C094D094E094F0948091302790913127A0913227B0913327C822D922E0
:201D8000EA22FB22C0923027D0923127E0923227F0923327A0902A27B0902B27C0FE04C07B
:201DA000F501828183FF8FC3912C812C97018601369527951795079500FF19C0F501838528
:201DC00083FD15C01785112359F0492D50E0612F70E0CE0101960E94DA37892B09F406C47B
:201DE000F5018685882AF5E0F91508F43BC397018601369527951795079536952795179532
:201E0000079500FF19C0F501848983FD15C0108D112359F0492D50E0612F70E0CE010196F0
:201E20000E94DA37892B09F4FCC3F5018789882AF5E0F91508F416C3D701C601F3E0B69552
:201E4000A79597958795FA95D1F780FF19C0F501858D83FD15C011A1112359F0492D50E01D
:201E6000612F70E0CE0101960E94DA37892B09F4C6C3F50180A1882AF6E09F1609F4F2C22A
:201E8000D701C601E4E0B695A79597958795EA95D1F780FF19C0F50186A183FD15C012A548
:201EA000112359F0492D50E0612F70E0CE0101960E94DA37892B09F4BDC3F50181A5882A07
:201EC000F6E09F1609F4CEC2D701C60175E0B695A795979587957A95D1F780FF19C0F50102
:201EE00087A583FD15C013A9112359F0492D50E0612F70E0CE0101960E94DA37892B09F4D8
:201F0000A2C3F50182A9882AF6E09F1609F4AAC2D701C60166E0B695A795979587956A95E2
:201F2000D1F780FF19C0F50180AD83FD15C014AD112359F0492D50E0612F70E0CE010196DF
:201F40000E94DA37892B09F487C3F50183AD882AF6E09F1609F486C2D701C60157E0B6950A
:201F6000A795979587955A95D1F780FF20C0F501EF5BFF4F808183FD1AC0F501EB5BFF4F54
:201F80001081112359F0492D50E0612F70E0CE0101960E94DA37892B09F470C3F501EC5B73
:201FA000FF4F8081882A86E0981609F45BC2D0FE1CC08501075B1F4FF801818183FD15C0A2
:201FC0007580772059F0492D50E0672D70E0CE0101960E94DA37892B09F447C3F8018481D0
:201FE000882AF6E09F1609F43DC2D701C60149E0B695A795979587954A95D1F780FF1CC00F
:2020000085010E5A1F4FF801818183FD15C07580772059F0492D50E0672D70E0CE0101964F
:202020000E94DA37892B09F432C3F8018481882AF6E09F1609F416C2D701C6013AE0B69533
:20204000A795979587953A95D1F780FF1CC08501055A1F4FF801818183FD15C075807720DB
:2020600059F0492D50E0672D70E0CE0101960E94DA37892B09F414C3F8018481882AF6E066
:202080009F1609F4EFC1D701C6012BE0B695A795979587952A95D1F780FF1CC085010C5998
:2020A0001F4FF801818183FD15C07580772059F0492D50E0672D70E0CE0101960E94DA37EA
:2020C000892B09F4F6C2F8018481882AF6E09F1609F4C8C1D701C6010CE0B695A795979598
:2020E00087950A95D1F780FF1CC0850103591F4FF801818183FD15C07580772059F0492D17
:2021000050E0672D70E0CE0101960E94DA37892B09F4D8C2F8018481882AF6E09F1609F40F
:20212000A1C1D701C6011DE0B695A795979587951A95D1F780FF1CC085010A581F4FF801B1
:20214000818183FD15C07580772059F0492D50E0672D70E0CE0101960E94DA37892B09F4FF
:20216000BAC2F8018481882AF6E09F1609F47AC1D701C601FEE0B695A79597958795FA9595
:20218000D1F780FF1CC0850101581F4FF801818183FD15C07580772059F0492D50E0672D70
:2021A00070E0CE0101960E94DA37892B09F4A5C2F8018481882AF6E09F1609F453C1D7017A
:2021C000C601EFE0B695A79597958795EA95D1F780FF1CC0850108571F4FF801818183FD2A
:2021E00015C07580772059F0492D50E0672D70E0CE0101960E94DA37892B09F475C2F801B1
:202200008481882AF6E09F1609F42CC1E0FE19C085010D561F4FF8017180772059F0492D44
:2022200050E0672D70E0CE0101960E94DA37892B09F4AFC1F8018081882AF6E09F1609F41C
:202240000FC1D701C60171E1B695A795979587957A95D1F780FF19C085010B561F4FF80171
:202260007180772059F0492D50E0672D70E0CE0101960E94DA37892B09F494C1F8018081EA
:20228000882AF6E09F1609F4EBC0D701C60162E1B695A795979587956A95D1F780FF19C089
:2022A000850109561F4FF8017180772059F0492D50E0672D70E0CE0101960E94DA37892BAA
:2022C00009F479C1F8018081882AF6E09F1609F4C7C0D701C60153E1B695A795979587956A
:2022E0005A95D1F780FF19C0850107561F4FF8017180772059F0492D50E0672D70E0CE015B
:2023000001960E94DA37892B09F45EC1F8018081882AF6E09F1609F4A3C0D701C60144E148
:20232000B695A795979587954A95D1F780FF19C0850107551F4FF8017180772059F0492D3F
:2023400050E0672D70E0CE0101960E94DA37892B09F443C1F8018081882AF6E09F1609F467
:202360007FC0D701C60135E1B695A795979587953A95D1F780FD5CC0D701C60126E1B69579
:20238000A795979587952A95D1F780FF0EC0850103551F4FF80171807110D3C0F8018081A1
:2023A000882AF6E09F1609F45BC097E1F694E794D794C7949A95D1F7C0FE0AC08FEAA80ED7
:2023C000B11CF50111811111D0C0F5018081882A81EA0E94E32C81E00E94E32C80E00E941D
:2023E000E32C882D0E94E32C911048C080E00E94E32C80E00E94E32C80E00E94E32C80E02C
:202400000E94E32C80E00E94E32C80E02696CDBFDEBFDF91CF911F910F91FF90EF90DF9018
:20242000CF90BF90AF909F908F907F900C94E32C850105551F4FF8017180772059F0492D15
:2024400050E0672D70E0CE0101960E94DA37892B09F4DEC0F8018081882AF6E09F128CCF72
:2024600086E0982E81EA0E94E32C81E00E94E32C80E00E94E32C882D0E94E32C89810E94DF
:20248000E32CF1E0F91508F0B4CF8A810E94E32C82E0891508F0B0CF8B810E94E32CE3E020
:2024A000E91508F0ACCF8C810E94E32CF4E0F91508F0A8CF8D810E94E32C85E0891508F0E2
:2024C000A4CF8E81A3CF168111112DC0912CF50185806CCCC12CD12C7601C39404C0CC0C1E
:2024E000DD1CEE1CFF1C8A95D2F78091302790913127A0913227B0913327C82AD92AEA2AC7
:20250000FB2AC0923027D0923127E0923227F092332740CCC0903027D0903127E090322758
:20252000F090332737CC40E050E0612F70E0CE0101960E94DA37892B49F619839924939402
:20254000C6CF492D50E0672D70E0CE0101960E94DA37892B09F022CFE1E0F0E0EC0FFD1FFD
:20256000E90DF11D7082939419CF492D50E0612F70E0CE0101960E94DA37892B09F025CF16
:20258000E1E0F0E0EC0FFD1FE90DF11D108393941CCFE1E0F0E0EC0FFD1FE90DF11D70824C
:2025A000939448CEE1E0F0E0EC0FFD1FE90DF11D7082939463CEE1E0F0E0EC0FFD1FE90D4A
:2025C000F11D708293947ECEE1E0F0E0EC0FFD1FE90DF11D7082939499CEE1E0F0E0EC0FD0
:2025E000FD1FE90DF11D70829394B4CEE1E0F0E0EC0FFD1FE90DF11D10839394F1CBE1E03D
:20260000F0E0EC0FFD1FE90DF11D1083939431CCE1E0F0E0EC0FFD1FE90DF11D7082939453
:2026200019CFE1E0F0E0EC0FFD1FE90DF11D10839394FBCBE1E0F0E0EC0FFD1FE90DF11DDA
:20264000108393943ACCE1E0F0E0EC0FFD1FE90DF11D1083939455CCE1E0F0E0EC0FFD1F8B
:20266000E90DF11D1083939470CCE1E0F0E0EC0FFD1FE90DF11D70829394B0CCE1E0F0E08E
:20268000EC0FFD1FE90DF11D1083939487CCE1E0F0E0EC0FFD1FE90DF11D70829394C5CCBC
:2026A000E1E0F0E0EC0FFD1FE90DF11D70829394E3CCE1E0F0E0EC0FFD1FE90DF11D708208
:2026C000939401CDE1E0F0E0EC0FFD1FE90DF11D708293941FCDE1E0F0E0EC0FFD1FE90DB6
:2026E000F11D708293943DCDE1E0F0E0EC0FFD1FE90DF11D7082939482CDE1E0F0E0EC0F09
:20270000FD1FE90DF11D7082939452CDFF920F931F93CF93DF93CDB7DEB72897CDBFDEBFA7
:202720009B01082F10E060912A2770912B2796E1899F600D711D1124C8010496F82EFF0CDE
:20274000FF0C2D833E834F8358876D557F4FF801EE0FFF1FE55CFE4D9E012F5F3F4FAE01B2
:202760004B5F5F4F80819181C9D7F801E45DF84D8081833009F45DC0843009F44CC0823092
:20278000E1F084E08083F801E25DF84D8081813021F1813070F58B819C8197FD05C084E0C4
:2027A000808360E08F2DBCDA2896CDBFDEBFDF91CF911F910F91FF90089589819A8197FD98
:2027C000E2CF84E0808360E08F2D8E5FA9DAF801E25DF84D80818130E1F68B819C81181618
:2027E000190614F384E0808360E08F2D8F5F98DADBCF843019F084E08083D6CF8B819C8154
:2028000097FD2BC0892B81F281E0808361E08F2D8F5F86DAC9CF89819A8197FD17C0892B87
:2028200009F4B1CF83E0808361E08F2D8D5F78DAAACF89819A81181619060CF4A4CF84E0B8
:20284000808360E08F2D8D5F6BDA9DCF82E0808361E08F2D8E5F64DA96CF108261E08F2D5B
:202860005FDAA2CF5DCA80933427909335270E94FF3044E150E060E070E086E397E20C9462
:20288000CE1E7F928F929F92AF92BF92CF92DF92EF92FF920F931F93CF93DF93CDB7DEB732
:2028A0002697CDBFDEBF10924227613009F4ABC36111DFC3C12CD12C7601C39404C0CC0CC3
:2028C000DD1CEE1CFF1C8A95D2F7C094D094E094F0948091442790914527A0914627B0915A
:2028E0004727C822D922EA22FB22C0924427D0924527E0924627F0924727A0903427B09037
:202900003527C0FE00C3F501828183FD6CC3F5011681111143C4912CF501858097018601A5
:20292000369527951795079500FDF7C2970186013695279517950795369527951795079555
:2029400000FF0AC0F501848983FF7DC3877090914227982B90934227D701C601F3E0B6955C
:20296000A79597958795FA95D1F780FF0AC0F501858D83FF87C3877090914227982B9093F8
:202980004227D701C601E4E0B695A79597958795EA95D1F780FF0AC0F50186A183FF88C322
:2029A000877090914227982B90934227D701C60175E0B695A795979587957A95D1F780FF2E
:2029C0000AC0F50187A583FF89C3877090914227982B90934227D701C60166E0B695A79501
:2029E000979587956A95D1F780FF1AC0F50180AD83FD8AC3F50114AD112359F0492D50E0A5
:202A0000612F70E0CE0101960E94DA37892B09F45FC4F50183AD882AF6E09F1609F497C230
:202A2000D701C60157E0B695A795979587955A95D1F780FF20C0F501EF5BFF4F808183FDCC
:202A40006AC3F501EB5BFF4F1081112359F0492D50E0612F70E0CE0101960E94DA37892B5E
:202A600009F448C4F501EC5BFF4F8081882A86E0981609F46CC2D0FE1DC08501075B1F4FCF
:202A8000F801818183FD50C3F8017580772059F0492D50E0672D70E0CE0101960E94DA3737
:202AA000892B09F41EC4F8018481882AF6E09F1609F44DC2D701C60149E0B695A7959795C1
:202AC00087954A95D1F780FF1DC085010E5A1F4FF801818183FD2FC3F8017580772059F040
:202AE000492D50E0672D70E0CE0101960E94DA37892B09F408C4F8018481882AF6E09F167B
:202B000009F425C2D701C6013AE0B695A795979587953A95D1F780FF1DC08501055A1F4F03
:202B2000F801818183FD0EC3F8017580772059F0492D50E0672D70E0CE0101960E94DA37D8
:202B4000892B09F4E9C3F8018481882AF6E09F1609F4FDC1D701C6012BE0B695A7959795C5
:202B600087952A95D1F780FF1DC085010C591F4FF801818183FDEDC2F8017580772059F005
:202B8000492D50E0672D70E0CE0101960E94DA37892B09F4CAC3F8018481882AF6E09F1619
:202BA00009F4D5C1D701C6010CE0B695A795979587950A95D1F780FF1DC0850103591F4F15
:202BC000F801818183FDCCC2F8017580772059F0492D50E0672D70E0CE0101960E94DA377B
:202BE000892B09F4ABC3F8018481882AF6E09F1609F4ADC1D701C6011DE0B695A7959795C1
:202C000087951A95D1F780FF1DC085010A581F4FF801818183FDABC2F8017580772059F0B9
:202C2000492D50E0672D70E0CE0101960E94DA37892B09F48CC3F8018481882AF6E09F16B6
:202C400009F485C1D701C601FEE0B695A79597958795FA95D1F780FF1DC0850101581F4FE5
:202C6000F801818183FD8AC2F8017580772059F0492D50E0672D70E0CE0101960E94DA371C
:202C8000892B09F476C3F8018481882AF6E09F1609F45DC1D701C601EFE0B695A7959795D3
:202CA0008795EA95D1F780FF1CC0850108571F4FF801818183FD69C27580772059F0492D12
:202CC00050E0672D70E0CE0101960E94DA37892B09F446C3F8018481882AF6E09F1609F4D5
:202CE00036C1E0FE19C085010D561F4FF8017180772059F0492D50E0672D70E0CE01019615
:202D00000E94DA37892B09F480C2F8018081882AF6E09F1609F464C1D701C60171E1B69578
:202D2000A795979587957A95D1F780FF19C085010B561F4FF8017180772059F0492D50E01B
:202D4000672D70E0CE0101960E94DA37892B09F465C2F8018081882AF6E09F1609F440C169
:202D6000D701C60162E1B695A795979587956A95D1F780FF19C0850109561F4FF801718046
:202D8000772059F0492D50E0672D70E0CE0101960E94DA37892B09F44AC2F8018081882A47
:202DA000F6E09F1609F41CC1D701C60153E1B695A795979587955A95D1F780FF19C0850177
:202DC00007561F4FF8017180772059F0492D50E0672D70E0CE0101960E94DA37892B09F40A
:202DE0002FC2F8018081882AF6E09F1609F4F8C0D701C60144E1B695A795979587954A9584
:202E0000D1F780FF19C0850107551F4FF8017180772059F0492D50E0672D70E0CE01019688
:202E20000E94DA37892B09F414C2F8018081882AF6E09F1609F4D4C0D701C60135E1B69590
:202E4000A795979587953A95D1F780FDB1C0D701C60126E1B695A795979587952A95D1F76D
:202E600080FF0EC0850103551F4FF80171807110A4C1F8018081882AF6E09F1609F4B0C045
:202E800097E1F694E794D794C7949A95D1F7C0FE0AC08FEAA80EB11CF50111811111A1C168
:202EA000F5018081882A81EA0E94E32C81E00E94E32C80E00E94E32C882D0E94E32C911023
:202EC00052C080E00E94E32C80E00E94E32C80E00E94E32C80E00E94E32C80E00E94E32C8B
:202EE00080E02696CDBFDEBFDF91CF911F910F91FF90EF90DF90CF90BF90AF909F908F90B5
:202F00007F900C94E32C912C812C97018601369527951795079500FF09CDF501838583FD48
:202F20006BC0F5011785112359F0492D50E0612F70E0CE0101960E94DA37892B09F492C1B4
:202F4000F5018685882AF5E0F91508F0EFCC81EA0E94E32C81E00E94E32C80E00E94E32CE9
:202F6000882D0E94E32C89810E94E32CF1E0F91508F0AACF8A810E94E32C82E0891508F02C
:202F8000A6CF8B810E94E32CE3E0E91508F0A2CF8C810E94E32CF4E0F91508F09ECF8D81C2
:202FA0000E94E32C85E0891508F09ACF8E8199CF850105551F4FF8017180772059F0492DF7
:202FC00050E0672D70E0CE0101960E94DA37892B09F463C1F8018081882AF6E09F1237CFB6
:202FE00086E0982EB4CF877090914227982B90934227912C812C89CF877090914227982B4C
:203000009093422793CCC12CD12C7601C39404C0CC0CDD1CEE1CFF1C8A95D2F780914427EF
:2030200090914527A0914627B0914727C82AD92AEA2AFB2AC0924427D0924527E09246271E
:20304000F09247275ACCF501108D112359F0492D50E0612F70E0CE0101960E94DA37892BF7
:2030600009F412C1F5018789882AF6E09F1274CC6ECFC0904427D0904527E0904627F090E0
:2030800047273BCCF50111A1112359F0492D50E0612F70E0CE0101960E94DA37892B09F446
:2030A000EAC0F50180A1882AF6E09F126ACC4FCFF50112A5112359F0492D50E0612F70E012
:2030C000CE0101960E94DA37892B09F4EFC0F50181A5882AF6E09F1269CC39CFF50113A933
:2030E000112359F0492D50E0612F70E0CE0101960E94DA37892B09F4E2C0F50182A9882A8E
:20310000F6E09F1268CC23CF877090914227982B9093422785CC877090914227982B90937A
:203120004227D0FEC7CCA9CC877090914227982B90934227BFCC877090914227982B90938E
:203140004227E0CC877090914227982B9093422701CD877090914227982B9093422722CDFD
:20316000877090914227982B9093422743CD877090914227982B9093422764CD8770909156
:203180004227982B9093422785CD877090914227982B90934227E0FEBFCDA5CD40E050E029
:2031A000612F70E0CE0101960E94DA37892B09F0B2CB198399249394AFCB492D50E0672DB8
:2031C00070E0CE0101960E94DA37892B09F051CEE1E0F0E0EC0FFD1FE90DF11D70829394F5
:2031E00048CE492D50E0612F70E0CE0101960E94DA37892B09F054CEE1E0F0E0EC0FFD1FA3
:20320000E90DF11D108393944BCEE1E0F0E0EC0FFD1FE90DF11D7082939477CDE1E0F0E03D
:20322000EC0FFD1FE90DF11D7082939492CDE1E0F0E0EC0FFD1FE90DF11D70829394ADCDBC
:20324000E1E0F0E0EC0FFD1FE90DF11D70829394C8CDE1E0F0E0EC0FFD1FE90DF11D708276
:203260009394E3CDE1E0F0E0EC0FFD1FE90DF11D1083939465CEE1E0F0E0EC0FFD1FE90D40
:20328000F11D108393940DCFE1E0F0E0EC0FFD1FE90DF11D10839394E5CEE1E0F0E0EC0FE5
:2032A000FD1FE90DF11D7082939494CEE1E0F0E0EC0FFD1FE90DF11D1083939408CFE1E075
:2032C000F0E0EC0FFD1FE90DF11D1083939415CFE1E0F0E0EC0FFD1FE90DF11D10839394FF
:2032E00098CBE1E0F0E0EC0FFD1FE90DF11D70829394D9CBE1E0F0E0EC0FFD1FE90DF11D56
:2033000010839394AFCBE1E0F0E0EC0FFD1FE90DF11D70829394EFCBE1E0F0E0EC0FFD1F52
:20332000E90DF11D708293940ECCE1E0F0E0EC0FFD1FE90DF11D708293942DCCE1E0F0E047
:20334000EC0FFD1FE90DF11D708293944CCCE1E0F0E0EC0FFD1FE90DF11D708293946BCC25
:20336000E1E0F0E0EC0FFD1FE90DF11D70829394B1CCE1E0F0E0EC0FFD1FE90DF11D70826D
:20338000939481CCFF920F931F93CF93DF93CDB7DEB72C97CDBFDEBF19861A861B861C8679
:2033A0006D837E834F835887082F10E026E1829FC00111248F569F4F6091342770913527AA
:2033C000680F791FFB01808186FD6DC0F801EE0FFF1FE15CFE4D9E01275F3F4FAE014B5F89
:2033E0005F4F808191819CD289859A85009709F08FC020E030E08B859C85009731F06EE645
:2034000070E00E945E376B877C87232B51F48B859C85892B31F490914227809143279817DF
:20342000C9F186E397E2D3D48823A1F144E150E060E070E086E397E2B1D480914227809333
:20344000432781EA0E94E32C83E00E94E32C809142270E94E32C89850E94E32C8A858F70DA
:203460002B853C8522953295307F3227207F3227822B0E94E32C8B859C859595879595955E
:20348000879595958795959587950E94E32C80E00E94E32C2C96CDBFDEBFDF91CF911F9157
:2034A0000F91FF900895C8010496F82EFF0CFF0C6E5E7F4FF801EE0FFF1FE15CFE4D9E01CC
:2034C0002F5F3F4FAE014B5F5F4F8081918116D1F801E25CF84D8081833011F1843009F4EC
:2034E00047C0823049F184E08083F801E05CF84D8081813089F158F58B819C8197FD05C0FD
:2035000084E0808360E08F2DBCD929853A857DCF6EE670E00E945E379B0169877A876BCF58
:2035200089819A811816190604F384E0808360E08F2D8D5FA6D9D9CF89819A8197FDD5CF4F
:2035400084E0808360E08F2D8E5F9BD9CECF8430E9F084E08083D9CF8B819C8118161906F8
:20356000A4F284E0808360E08F2D8F5F8AD9CDCF89819A8197FD1DC0892B09F4B6CF83E036
:20358000808361E08F2D8D5F7CD9AFCF2B813C8137FD0AC0232B09F4B8CF81E0808361E08E
:2035A0008F2D8F5F6ED9B1CF108261E08F2D69D9ACCF82E0808361E08F2D8E5F62D995CF60
:2035C00060C90F931F93CF93DF93CDB7DEB72797CDBFDEBF87E0EDE7F0E2DE011196019076
:2035E0000D928A95E1F760E184E066D6E8ECF1E0E491F0E06081662361F08F010F5F1F4F43
:2036000080EA99E00E94C228F80161918F016111F7CFFCD5BE016F5F7F4F80EA99E00E94D7
:20362000322A811125C0EAEDF1E0E491F0E06081662361F08F010F5F1F4F80EA99E00E941E
:20364000C228F80161918F016111F7CF6DE080EA99E00E94C2286AE080EA99E00E94C22858
:203660002796CDBFDEBFDF91CF911F910F910895EEEDF1E0E491F0E06081662339F38F0190
:203680000F5F1F4F80EA99E00E94C228F80161918F016111F7CFDACF682F80EA99E00C9469
:2036A000C228CF93DF93FC016081662349F0EC01219680EA99E00E94C22869916111F9CF65
:2036C000DF91CF910895CF93DF93FC016081662349F0EC01219680EA99E00E94C2286991FC
:2036E0006111F9CF6DE080EA99E00E94C2286AE080EA99E0DF91CF910C94C228CF93DF9379
:20370000EA01A881B981EC01E881F981EA014A815B81EC018A819B81EA1BFB0B841B950B9B
:20372000AF01F7FD29C0519541955109EB01A881B981B195A195B109A417B50714F4E0E022
:20374000F0E0AC0197FD1DC0519541955109DB0112966D917C91139771956195710964173B
:20376000750714F480E090E0E901E883F9838A839B83DF91CF910895442755274E1B5F0BD2
:20378000D2CF44275527481B590BDECFCF92DF92EF92FF920F931F93CF93DF936B0179013B
:2037A000FA01A081B181FC0120813181A21BB30BFA01C281D381FC0182819381C81BD90B83
:2037C000CD01B7FD74C0919581959109F601228933893195219531092817390784F4CE0183
:2037E000D7FD8BC0919581959109F60124893589319521953109281739070CF447C01A1606
:203800001B060CF068C09D01A1E8BFEF0E94AE37F60124853585442737FD4095542F0E9414
:203820009337022F132F1C161D060CF045C09E01A1E8BFEF0E94AE37F601208931894427D3
:2038400037FD4095542F0E949337003811050CF1C9012138FFEF3F079CF0803891056CF494
:203860000FE7F70100838183DF91CF911F910F91FF90EF90DF90CF9008958FE790E0F0CF95
:2038800081E89FEF803891055CF3F7CF80E000E0E8CF01388FEF1807ACF5C9012138EFEF5F
:2038A0003E072CF180389105F4F401E8DACF882799278A1B9B0B87CF2FE730E0DE010E9427
:2038C000C037F60126853785442737FD4095542F0E949337BACF2FE730E00E94C037F601F1
:2038E0002285338598CF8FE790E001E8BACF81E89FEF80389105CCF2F6CF882799278C1BCC
:203900009D0B70CFC9012138FFEF3F0714F481E89FEF803891050CF4A4CF8FE790E0A1CF53
:20392000CF93DF93DA01ED91FC91EC01A881B981EA1BFB0BDA0112964D915C9113978A816F
:203940009B81481B590BCF01F7FD5AC0919581959109EB01AA89BB89B195A195B109A81778
:20396000B9078CF4CA0157FD5CC0919581959109DB0154966D917C915597719561957109C3
:20398000681779074CF1F195E195F109519541955109E115B8E0FB0724F14115C8EF5C07CA
:2039A000A4F04115D8E05D076CF4EFEFF7E0D901ED93FC93119712964D935C931397DF91CA
:2039C000CF9108954FEF57E0F0CF40E058EF4115D8E05D0754F3F6CF40E050E0E0E0F0E0F1
:2039E000E6CFE11588EFF8070CF54115A8EF5A078CF04115B8E05B0744F4E0E0F8EFD7CF06
:203A0000882799278E1B9F0BA1CF4FEF57E0E0E0F8EFCDCF40E058EF4115B8E05B076CF3A6
:203A2000F4CF88279927841B950B9FCF4115C8EF5C0714F440E058EF4115D8E05D070CF456
:203A4000B6CF4FEF57E0B3CFCF93DF93CDB7DEB72897CDBFDEBFDAD380E0EDD30E94432D36
:203A60008AEA90EAA1E0B0E00197A109B109E1F7789480914800817F8460809348008091BE
:203A80004800816080934800889540ED57E060E070E0CE01019682D10E949C0A182F05C084
:203AA00088E00E94CC04882379F3CE0101968FD18823B1F3812F0E94F309809148008E7F4C
:203AC0008093480061E089E790E0EDD4FFCF8F929F92AF92BF92CF92DF92EF92FF92CF93B1
:203AE000C82F94D380E0A7D330D16B017C019091A80692FDFCCF20E030E02F5F3F4F2535F5
:203B000080ED3807D1F721D14B015C0181E093D37DD380EDC80E87E0D81EE11CF11C8C1435
:203B20009D04AE04BF0458F481E0CF91FF90EF90DF90CF90BF90AF909F908F9008958C2F52
:203B400083DF8093482724EF31E042E066E089E497E20E94A12A24EF31E041E062E080E5B6
:203B600097E20E94A12A24EF31E042E062E087E597E20E94A12A64E689E497E20E94E12BA7
:203B800064E680E597E20E94E12B64E687E597E20C94E12B0F931F93CF93DF93C62F142F14
:203BA000853608F084E6A4E6A81B20914E2730914F27B0E00E94B43724E630E040E050E0B7
:203BC0000E94713780914B27E0914927F0914A27E6FF60C0813009F46FC0823009F466C08E
:203BE000C53608F0C4E6A4E6AC1B00914827011189C081E090E0EC01CC0FDD1FCC0FDD1F10
:203C0000CC0FDD1FC81BD90BC75BD84D2D813E81B0E00E94B43724E630E040E050E00E9429
:203C200071378A81E881F981E6FF53C0813009F47CC0823009F44AC0153608F014E6A4E68C
:203C4000A11B011162C082E090E0EC01CC0FDD1FCC0FDD1FCC0FDD1FC81BD90BC75BD84D22
:203C60002D813E81B0E00E94B43724E630E040E050E00E9471378A81E881F981E6FF34C03F
:203C8000813009F448C08230D1F0DF91CF911F910F910895823051F060F0833009F44BC040
:203CA000843009F09DCF26AF37AF9ACF22AF33AF97CF813009F094CF20AF31AF91CF22AFC1
:203CC00033AFDF91CF911F910F91089522AF33AFB3CF8230D9F330F1833051F1843009F0CF
:203CE000ABCF26AF37AFA8CF823049F388F0833029F1843051F626AF37AFDF91CF911F91AF
:203D00000F91089582E090E076CF81E090E09DCF813009F0BACF20AF31AFDF91CF911F91B0
:203D20000F910895813009F087CF20AF31AF84CF24AF35AF81CF24AF35AF52CF24AF35AFAE
:203D4000DF91CF911F910F9108950F931F938FB7F894009160271091612720916227309144
:203D600063278FBFB801C9011F910F9108952FB7F8948091602790916127A0916227B0914D
:203D800063270196A11DB11D8093602790936127A0936227B09363272FBF08950F931F93C9
:203DA000EFB7F89400916027109161272091622730916327EFBFFC010083118322833383EE
:203DC00044835583668377831F910F9108950F931F93FC014481558166817781452B462BC8
:203DE000472B01F18FB7F894409160275091612760916227709163278FBF008111812281C3
:203E00003381401B510B620B730B81E00481158126813781401751076207730718F01F9127
:203E20000F91089580E01F910F910895FC01148215821682178208950F931F93CF93DF93D8
:203E40008C0180E498E00E941328C0E4D8E088858E6F88878981887F898318A219A280E0B5
:203E60009DE78EA39FA38C8581608C87B80180E498E00E9495288E818C7F8E838E81816037
:203E80008E838881807F8160888380E498E0DF91CF911F910F910C94542880E498E00C9489
:203EA0001328E0E4F8E0848581608487089560E183E002D28CEF94E2F4DBA8D16EE570E243
:203EC00080EA98E00E94322A811118C081E195E2FADB40E46AE677E284E697E20E9454053F
:203EE00040E260EB77E28AEA97E20E9454058091A3088F7C80618093A30808958CE095E22E
:203F0000E2DBE7CFCF93C82F6C2F8AEA97E20E945D058823C9F38091A3088C7F8160809327
:203F2000A308CF9108950F931F93CF93DF93062FFC011081112391F0EC012196612F8AEA91
:203F400097E20E945D058823C9F38091A3088C7F81608093A30819911111F0CF011105C0B5
:203F6000DF91CF911F910F91089560E08AEA97E20E945D058823C9F38091A3088C7F816044
:203F80008093A308DF91CF911F910F9108951F93CF93DF93FC011081112391F0EC01219639
:203FA000612F8AEA97E20E945D058823C9F38091A3088C7F81608093A30819911111F0CF28
:203FC0006DE08AEA97E20E945D058823C9F38091A3088C7F81608093A3086AE08AEA97E29F
:203FE0000E945D058823C9F38091A3088C7F81608093A308DF91CF911F910895462FBC01A1
:2040000084E697E20C949E051F920F920FB60F9211240BB60F922F933F934F935F936F93C1
:204020007F938F939F93AF93BF93CF93EF93FF93CFB7F8946091A0086B31E1F084E697E215
:204040000E945D0580E88093A108CFBFFF91EF91CF91BF91AF919F918F917F916F915F915A
:204060004F913F912F910F900BBE0F900FBE0F901F90189561E089E790E015D2FFCF1F927A
:204080000F920FB60F9211240BB60F922F933F934F935F936F937F938F939F93AF93BF931E
:2040A000EF93FF93CF93DF931F92CDB7DEB7BE016F5F7F4F8AEA97E20E947D0581111BC075
:2040C0008091A3088C7F8093A3080F90DF91CF91FF91EF91BF91AF919F918F917F916F91EC
:2040E0005F914F913F912F910F900BBE0F900FBE0F901F90189589818093A008E6CFDF92A6
:20410000EF92FF920F931F93CF93DF93CDB7DEB72897CDBFDEBF8C017B0168E28AEA97E224
:204120000E945D058823C9F38091A3088C7F81608093A3084AE050E0BE016F5F7F4FC80130
:204140000E94F937FC01D080DD20A9F08C010F5F1F4F6D2D8AEA97E20E945D058823C9F34F
:204160008091A3088C7F81608093A308F801D1908F01D110EECF6CE28AEA97E20E945D0512
:204180008823C9F38091A3088C7F81608093A3084AE050E0BE016F5F7F4FC7010E94F93703
:2041A000FC01F080FF20A9F08C010F5F1F4F6F2D8AEA97E20E945D058823C9F38091A308C1
:2041C0008C7F81608093A308F801F1908F01F110EECF69E28AEA97E20E945D058823C9F3CA
:2041E0008091A3088C7F81608093A3082896CDBFDEBFDF91CF911F910F91FF90EF90DF90D5
:2042000008958AE00E94782A0C94942A85E195E248DAA89508958091652090916620009748
:2042200029F00197809365209093662085E195E238DAA8950895811102C00C948C2A0C9479
:20424000942A811107C084E690E080936520909366200895823009F0089584E690E080935A
:2042600067209093682008958FEF8093700080937100809372008093730080937400809345
:204280007500809376009FB7F894809150008260809350009FBF8091510081FFFCCF61E04C
:2042A00080E490E000D19FB7F894809150008E7F809350009FBF08959FB7F894E82FF0E0E2
:2042C000E059FF4F60958081862380839FBF08959FB7F894E82FF0E0E059FF4F8081862BB8
:2042E00080839FBF08958115924009F008958091D027982F9F5F9093D0278111F7CF62E041
:2043000081E0DACF8115924009F008958091D02781508093D0278111F8CF62E081E0D8CF0F
:204320001F93CF93DF93EC011FB7F894C11582E0D80781F08881816088831FBF9FB7F8946B
:20434000809136288F5F809336289FBFDF91CF911F9108958091D027982F9F5F9093D0272D
:204360008111E8CF62E081E0A7DFE4CFFF920F931F93CF93DF93EB018115924031F0DF917A
:20438000CF911F910F91FF90089561E270E082E054D1182F60E270E082E04FD1312F20E06C
:2043A0008901082BFFB6F89480E092E09CDF20910002217082E08093000200930C021093B3
:2043C0000D028C819D8180931802909319028981809302028B81809304028A8180930302CF
:2043E0008881809301022093000280E092E08ADFFFBEDF91CF911F910F91FF900895FF9214
:204400000F931F93CF93DF93EC018B01FFB6F8946ADF888D998DF801848395838A8181830F
:204420008C8183838B81828389818083CE016ADFFFBEDF91CF911F910F91FF900895FF9299
:204440000F931F93CF93DF93EC018A01FFB6F8944ADFF801808188A382818AA3818189A3CF
:20446000CE0150DFFFBEDF91CF911F910F91FF900895FF920F931F93CF93DF93EC018A0104
:20448000FFB6F89430DF88A1F80180838AA1828389A18183CE0136DFFFBEDF91CF911F9128
:2044A0000F91FF9008951BBEFC0128ED24BF608308959C01CB01E091CF01E7FDFCCFE09118
:2044C000CC01E860E093CC01305FB9010E94E7378091CC01877F8093CC0108957F928F92EB
:2044E0009F92AF92BF92CF92DF92EF92FF920F931F93CF93DF937C018B016A0141155105CD
:2045000009F443C043E3A42E55E3B52E66E3962EC7018F719927892B29F480E2C816D1040D
:2045200008F041C0F8017080E70121968090CA018091CF0187FDFCCF8091CF0181FF06C0C8
:204540009092CA0161E08BEC91E0ADDF8091CF0187FDFCCFA092CA011092C201F092C101E3
:20456000E092C0017092C401B092CA0161E08BEC91E099DF8092CA010F5F1F4FF1E0CF1A20
:20458000D1087E01C114D10419F6DF91CF911F910F91FF90EF90DF90CF90BF90AF909F9051
:2045A0008F907F9008959091CA018091CF0187FDFCCFA092CA011092C2011092C1019801B5
:2045C000205E3F4FE8018C2F801B8093C00189918093C401C217D307B1F79093CA01C701B9
:2045E00096958795929582958F7089279F7089272091CF0127FDFCCF9927880F991F829532
:204600009295907F9827807F98271092C2019093C1018093C0011091CA01B092CA0161E00F
:204620008BEC91E040DF1093CA01E0E2EE0EF11CF0E2CF1AD1088E01A5CF4091CA01E62FF2
:20464000F72F8093CA0184914093CA0108951F920F920FB60F9211240BB60F922F933F9323
:204660004F935F936F937F938F939F93AF93BF93EF93FF93E091D127F091D227309709F0B3
:204680000995FF91EF91BF91AF919F918F917F916F915F914F913F912F910F900BBE0F9015
:2046A0000FBE0F901F9018951F920F920FB60F9211240BB60F922F933F934F935F936F9379
:2046C0007F938F939F93AF93BF93EF93FF93E091D327F091D427309709F00995FF91EF9177
:2046E000BF91AF919F918F917F916F915F914F913F912F910F900BBE0F900FBE0F901F9048
:2047000018951F920F920FB60F9211240BB60F922F933F934F935F936F937F938F939F93CD
:20472000AF93BF93EF93FF93E091D527F091D627309709F00995FF91EF91BF91AF919F91B8
:204740008F917F916F915F914F913F912F910F900BBE0F900FBE0F901F9018951F920F92A8
:204760000FB60F9211240BB60F922F933F934F935F936F937F938F939F93AF93BF93EF9356
:20478000FF93E091D727F091D827309709F00995FF91EF91BF91AF919F918F917F916F913A
:2047A0005F914F913F912F910F900BBE0F900FBE0F901F9018951F920F920FB60F921124DD
:2047C0000BB60F922F933F934F935F936F937F938F939F93AF93BF93EF93FF93E091D9278E
:2047E000F091DA27309709F00995FF91EF91BF91AF919F918F917F916F915F914F913F9139
:204800002F910F900BBE0F900FBE0F901F9018951F920F920FB60F9211240BB60F922F93F8
:204820003F934F935F936F937F938F939F93AF93BF93EF93FF93E091DB27F091DC27309704
:2048400009F00995FF91EF91BF91AF919F918F917F916F915F914F913F912F910F900BBEF9
:204860000F900FBE0F901F9018951F920F920FB60F9211240BB60F922F933F934F935F931A
:204880006F937F938F939F93AF93BF93EF93FF93E091DD27F091DE27309709F00995FF911F
:2048A000EF91BF91AF919F918F917F916F915F914F913F912F910F900BBE0F900FBE0F90B5
:2048C0001F9018951F920F920FB60F9211240BB60F922F933F934F935F936F937F938F938F
:2048E0009F93AF93BF93EF93FF93E091DF27F091E027309709F00995FF91EF91BF91AF91E1
:204900009F918F917F916F915F914F913F912F910F900BBE0F900FBE0F901F9018951F9257
:204920000F920FB60F9211240BB60F922F933F934F935F936F937F938F939F93AF93BF9375
:20494000EF93FF93E091E127F091E227309709F00995FF91EF91BF91AF919F918F917F91E2
:204960006F915F914F913F912F910F900BBE0F900FBE0F901F9018951F920F920FB60F9250
:2049800011240BB60F922F933F934F935F936F937F938F939F93AF93BF93EF93FF93E09197
:2049A000E327F091E427309709F00995FF91EF91BF91AF919F918F917F916F915F914F9133
:2049C0003F912F910F900BBE0F900FBE0F901F9018951F920F920FB60F9211240BB60F9229
:2049E0002F933F934F935F936F937F938F939F93AF93BF93EF93FF93E091E527F091E62734
:204A0000309709F00995FF91EF91BF91AF919F918F917F916F915F914F913F912F910F9039
:204A20000BBE0F900FBE0F901F9018951F920F920FB60F9211240BB60F922F933F934F9381
:204A40005F936F937F938F939F93AF93BF93EF93FF93E091E727F091E827309709F00995E7
:204A6000FF91EF91BF91AF919F918F917F916F915F914F913F912F910F900BBE0F900FBE02
:204A80000F901F9018951F920F920FB60F9211240BB60F922F933F934F935F936F937F9350
:204AA0008F939F93AF93BF93EF93FF93E091E927F091EA27309709F00995FF91EF91BF9129
:204AC000AF919F918F917F916F915F914F913F912F910F900BBE0F900FBE0F901F90189507
:204AE0001F920F920FB60F9211240BB60F922F933F934F935F936F937F938F939F93AF9355
:204B0000BF93EF93FF93E091EB27F091EC27309709F00995FF91EF91BF91AF919F918F91CA
:204B20007F916F915F914F913F912F910F900BBE0F900FBE0F901F9018951F920F920FB61F
:204B40000F9211240BB60F922F933F934F935F936F937F938F939F93AF93BF93EF93FF93A5
:204B6000E091ED27F091EE27309709F00995FF91EF91BF91AF919F918F917F916F915F91CC
:204B80004F913F912F910F900BBE0F900FBE0F901F9018951F920F920FB60F9211240BB628
:204BA0000F922F933F934F935F936F937F938F939F93AF93BF93EF93FF93E091EF27F091D4
:204BC000F027309709F00995FF91EF91BF91AF919F918F917F916F915F914F913F912F9100
:204BE0000F900BBE0F900FBE0F901F9018951F920F920FB60F9211240BB60F922F933F9303
:204C00004F935F936F937F938F939F93AF93BF93EF93FF93E091F127F091F227309709F0CD
:204C20000995FF91EF91BF91AF919F918F917F916F915F914F913F912F910F900BBE0F906F
:204C40000FBE0F901F9018951F920F920FB60F9211240BB60F922F933F934F935F936F93D3
:204C60007F938F939F93AF93BF93EF93FF93E091F327F091F427309709F00995FF91EF9191
:204C8000BF91AF919F918F917F916F915F914F913F912F910F900BBE0F900FBE0F901F90A2
:204CA00018951F920F920FB60F9211240BB60F922F933F934F935F936F937F938F939F9328
:204CC000AF93BF93EF93FF93E091F527F091F627309709F00995FF91EF91BF91AF919F91D3
:204CE0008F917F916F915F914F913F912F910F900BBE0F900FBE0F901F9018951F920F9203
:204D00000FB60F9211240BB60F922F933F934F935F936F937F938F939F93AF93BF93EF93B0
:204D2000FF93E091F727F091F827309709F00995FF91EF91BF91AF919F918F917F916F9154
:204D40005F914F913F912F910F900BBE0F900FBE0F901F9018951F920F920FB60F92112437
:204D60000BB60F922F933F934F935F936F937F938F939F93AF93BF93EF93FF93E091F927C8
:204D8000F091FA27309709F00995FF91EF91BF91AF919F918F917F916F915F914F913F9173
:204DA0002F910F900BBE0F900FBE0F901F9018951F920F920FB60F9211240BB60F922F9353
:204DC0003F934F935F936F937F938F939F93AF93BF93EF93FF93E091FB27F091FC2730971F
:204DE00009F00995FF91EF91BF91AF919F918F917F916F915F914F913F912F910F900BBE54
:204E00000F900FBE0F901F9018951F920F920FB60F9211240BB60F922F933F934F935F9374
:204E20006F937F938F939F93AF93BF93EF93FF93E091FD27F091FE27309709F00995FF9139
:204E4000EF91BF91AF919F918F917F916F915F914F913F912F910F900BBE0F900FBE0F900F
:204E60001F9018951F920F920FB60F9211240BB60F922F933F934F935F936F937F938F93E9
:204E80009F93AF93BF93EF93FF93E091FF27F0910028309709F00995FF91EF91BF91AF91FA
:204EA0009F918F917F916F915F914F913F912F910F900BBE0F900FBE0F901F9018951F92B2
:204EC0000F920FB60F9211240BB60F922F933F934F935F936F937F938F939F93AF93BF93D0
:204EE000EF93FF93E0910128F0910228309709F00995FF91EF91BF91AF919F918F917F91FB
:204F00006F915F914F913F912F910F900BBE0F900FBE0F901F9018951F920F920FB60F92AA
:204F200011240BB60F922F933F934F935F936F937F938F939F93AF93BF93EF93FF93E091F1
:204F40000328F0910428309709F00995FF91EF91BF91AF919F918F917F916F915F914F914B
:204F60003F912F910F900BBE0F900FBE0F901F9018951F920F920FB60F9211240BB60F9283
:204F80002F933F934F935F936F937F938F939F93AF93BF93EF93FF93E0910528F09106284C
:204FA000309709F00995FF91EF91BF91AF919F918F917F916F915F914F913F912F910F9094
:204FC0000BBE0F900FBE0F901F9018951F920F920FB60F9211240BB60F922F933F934F93DC
:204FE0005F936F937F938F939F93AF93BF93EF93FF93E0910728F0910828309709F0099500
:20500000FF91EF91BF91AF919F918F917F916F915F914F913F912F910F900BBE0F900FBE5C
:205020000F901F901895CF93CFB7F894811528E0920719F1803428E0920731F1811529E0AA
:20504000920721F181152AE0920739F181159B4019F0CFBFCF91089561E086E02DD964E04C
:2050600086E02AD99FB7F894809136288F5F809336289FBFCFBFCF91089561E083E01CD995
:2050800064E083E019D9EECF62E0F8CF61E084E013D964E084E010D9E5CF61E085E00CD950
:2050A00064E085E009D9DECFCF93CFB7F8943FB7F894209136282150209336283FBF81159D
:2050C00028E09207C9F0803428E09207F1F0811529E09207E1F081152AE09207F9F081157F
:2050E0009B4019F0CFBFCF91089561E086E0F0D864E086E0EDD8F6CF61E083E0E9D864E0F5
:2051000083E0E6D8CFBFCF91089562E0F6CF61E084E0DED864E084E0DBD8E4CF61E085E0CD
:20512000D7D864E085E0D4D8DDCF811528E09207A9F0803428E09207B1F0811529E09207C1
:20514000B9F081152AE09207C1F081159B4009F008956093FD277093FE2708956093D127EE
:205160007093D22708956093DD277093DE2708956093E5277093E62708956093F127709340
:20518000F2270895FC01818185FFFDCF608380E090E008958F929F92AF92BF92CF92DF9204
:2051A000EF92FF920F931F93CF93DF93EC016A017B0148015901D901C80133E0B695A79501
:2051C000979587953A95D1F7B501A401E6E17695679557954795EA95D1F72C8122FD08C024
:2051E000B695A7959795879576956795579547958C159D05AE05BF0508F498C0C416D5064E
:20520000E606F70608F492C08C8182FF9DC0C501B401A70196010E9471372F3F310541057E
:20522000510508F496C02F3F81E038074105510508F4C2C02F3F93E039074105510508F4E5
:20524000F1C02F3FA7E03A074105510508F4ECC02F3FBFE03B074105510508F4E7C02E3F28
:205260008FE138074105510508F4E2C02C3F9FE339074105510508F4DDC0283FAFE73A07A5
:205280004105510508F4D8C0203FBFEF3B074105510508F4DBC0203E8FEF380781E0480791
:2052A000510508F4D5C0203C9FEF390793E04907510508F4CFC02038AFEF3A07A7E04A072A
:2052C000510508F4C9C02115BFEF3B07BFE04B07510508F4C3C021153E4F4F41510508F462
:2052E000BFC010E72AE030E0D701C60104C0880F991FAA1FBB1F2A95D2F79C01AD01BC0139
:20530000CD019695879577956795680D791D8A1D9B1D0E9471372150310941095109832FBB
:205320008F70812B8F832E8381E001C080E0DF91CF911F910F91FF90EF90DF90CF90BF9032
:20534000AF909F908F900895CC0CDD1CEE1CFF1C5ECFD701C601880F991FAA1FBB1F880FD8
:20536000991FAA1FBB1F880F991FAA1FBB1F881A990AAA0ABB0A10E929EF3FEF6DEF7FEF19
:20538000621B730BA501940104C0220F331F441F551F6A95D2F7CA01B90146015701B69483
:2053A000A79497948794680D791D8A1D9B1DA70196010E947137B3CF4AEF242F332727FDED
:2053C0003095142F1295107FD701C601880F991FAA1FBB1F880F991FAA1FBB1F880F991FBD
:2053E000AA1FBB1F881A990AAA0ABB0A4E3F34F22D5F3F4FD701C60104C0880F991FAA1F04
:20540000BB1F2A95D2F79C01AD01BC01CD019695879577956795680D791D8A1D9B1D0E94F9
:2054200071377DCF4BEFC9CF4CEFC7CF4DEFC5CF4EEFC3CF4FEFC1CF10E0212F332727FDAA
:2054400030952D5F3F4F1295107F4ECF11E0F5CF12E0F3CF13E0F1CF14E0EFCF15E0EDCF9B
:2054600016E0EBCF0F931F93CF93DF93EC018B01C03A88E0D80791F1C03AE9E0DE0799F1E6
:20548000C03AFAE0DF0729F18D818F738D83F80184819581892B9681911119C090E0892B9A
:2054A0008D83F801408151816281738100E018E428EE31E0CE016EDE9C8198609C839C810A
:2054C00090619C83DF91CF911F910F91089598E0E6CF60E185E00E945C21D6CF60E183E0C4
:2054E0000E945C21D1CF60E184E00E945C21CCCF6091800024E0829FC00111248C73992743
:2055000062706160682B80E890E00E9453228091820080FDFCCF0895609180006C7F6160E1
:2055200080E890E00C945322609180006C73636080E890E00E9453228091820080FDFCCFA1
:2055400008958F929F92AF92BF92CF92DF92EF92FF92CF93DF93EC014901623009F4CCC0C0
:2055600008F44FC0643009F4DCC0663009F4AFC04A83423009F463C0433008F07BC041307B
:2055800011F480E18B83888199814DDDE881F9818181887F836081831D821E821C82E88131
:2055A000F9818081807F8083A12CB12C60E078E488EE91E0A50194010E94713769017A01D7
:2055C000CA01B9012FEF3FEF40E050E00E94713721153105B9F581E08C83CD82DE8284E6BD
:2055E000C816D10418F41C821D821E82DF91CF91FF90EF90DF90CF90BF90AF909F908F9087
:205600000895662309F44EC0613009F0B1CF80E498E08883998350914006242F30E02D5F36
:205620003F4F81E090E0022E01C0880F0A94EAF7582B509340064A83423009F09DCF80E252
:205640008B83A1CF2130310509F480C024303105E0F02830310508F086C084E08C8360E02F
:2056600079E08DE390E0A50194010E94713769017A01B3CF433031F0443009F084CF80E849
:205680008B8381CF80E48B837ECF83E08C8360E072E18AE790E0A50194010E947137690118
:2056A0007A019BCF80E098E08883998350914006242F30E02150310981E090E0022E01C00F
:2056C000880F0A94EAF7582B5093400651CF80E09BE0888399835091A006242F30E021508B
:2056E000310981E090E0022E01C0880F0A94EAF7582B5093A0063CCF80E099E08883998381
:2057000050916006242F30E02150310981E090E0022E01C0880F0A94EAF7582B5093600690
:2057200027CF80E09AE08883998350918006242F30E02150310981E090E0022E01C0880FA4
:205740000A94EAF7582B5093800612CF82E08C8360E074E284EF90E0A50194010E9471378E
:2057600069017A013ACF2034310588F02F3F310509F0D0F486E08C8368E478EE81E090E0E0
:20578000A50194010E94713769017A0126CF85E08C8360E271EA87E090E0A50194010E94E5
:2057A000713769017A0119CF87E08C8362E17AE780E090E0A50194010E94713769017A0120
:2057C0000CCF0F931F93CF93DF93EC010D811E819801A62FB0E00E94B43724E630E040E0E7
:2057E00050E00E9471378A81E881F981E6FF1BC08130D1F1823079F106A317A38B81E8811A
:20580000F9819181E6FF24C08073892B8183E881F9818081807F9C81892B8083DF91CF9101
:205820001F910F9108958230B1F0E0F0833019F1843011F726AF37AF0D811E81E881F98114
:2058400006A317A38B81E881F9819181E6FDDCCF982B9183DCCF22AF33AF0D811E81E8818B
:20586000F981CACF813041F620AF31AF0D811E81E881F981C1CF24AF35AF0D811E81E88191
:20588000F981BACF1F93CF93DF93EC0112E0699180918806662309F184FD17C010938506FE
:2058A00048EE53E08091880684FD0FC020E030E02F5F3F4F253D84E13807D1F741505109AB
:2058C00031F38091880684FFF1CF80EA9AE05ADC6991809188066111DFCF84FD35C082E017
:2058E0008093850628EE33E08091880684FD2CC080E090E00196853D44E19407D9F72150AB
:20590000310991F78091880684FD17C082E08093850628EE33E08091880684FD0EC080E057
:2059200090E00196853D44E19407D9F72150310991F7DF91CF911F9108956AE080EA9AE090
:20594000DF91CF911F911ECC6DE080EA9AE01ADCD9CFCF93DF93CDB7DEB72797CDBFDEBF3A
:2059600087E0E4E8F0E2DE01119601900D928A95E1F760E185E00E945C2187E195E20E942F
:20598000511B0E940621BE016F5F7F4F80EA9AE069DD81110CC0EAEDF1E0849190E00E9420
:2059A000631B2796CDBFDEBFDF91CF910895EEEDF1E0849190E00E94631B2796CDBFDEBFDF
:2059C000DF91CF9108959091880694FD15C092E09093850648EE53E09091880694FD0CC0B0
:2059E00020E030E02F5F3F4F253D94E13907D1F74150510989F70895682F80EA9AE0C2CB8C
:205A00002091880624FD16C022E02093850648EE53E02091880624FD0DC020E030E02F5FDC
:205A20003F4F253D64E13607D1F74150510989F780E0089527DF80E0089580E280938506C1
:205A400085E593E2A8E0B0E00197A109B109E1F781E0809386068091880684FD13C082E026
:205A60008093850620E83EE38091880684FD0AC080E090E00196853D44E19407D9F721504B
:205A8000310991F7089586E295E20E94631B8091880684FD13C082E08093850620ED37E091
:205AA0008091880684FD0AC080E090E00196853D44E19407D9F72150310991F78091880671
:205AC00084FD1AC082E08093850628EE33E08091880684FD11C080E090E00196853D44E103
:205AE0009407D9F72150310991F781E08093850680E28093860608958CE295E2C3DE81E084
:205B00008093850680E28093860608958091880684FD13C082E08093850620ED37E0809121
:205B2000880684FD0AC080E090E00196853D44E19407D9F72150310991F78091880684FD80
:205B4000D2C082E08093850628EE33E08091880684FDC9C080E090E00196853D44E19407F8
:205B6000D9F72150310991F78091880684FDB7C082E08093850628EE33E08091880684FD42
:205B8000AEC080E090E00196853D44E19407D9F72150310991F78091880684FD13C082E056
:205BA0008093850628EE33E08091880684FD0AC080E090E00196853D44E19407D9F721500A
:205BC000310991F78091880684FD85C082E08093850628EE33E08091880684FD7CC080E0B9
:205BE00090E00196853D44E19407D9F72150310991F785E593E2A8E0B0E00197A109B10926
:205C0000E1F786E295E20E94631B8091880684FD13C082E08093850620ED37E080918806F7
:205C200084FD0AC080E090E00196853D44E19407D9F72150310991F78091880684FD47C006
:205C400082E08093850628EE33E08091880684FD3EC080E090E00196853D44E19407D9F744
:205C60002150310991F781E08093850680E2809386068AEA91E1A4E0B0E00197A109B109FB
:205C8000E1F780E28093850685E593E2A8E0B0E00197A109B109E1F781E080938606809150
:205CA000880684FD13C082E08093850620E83EE38091880684FD0AC080E090E00196853DC6
:205CC00044E19407D9F72150310991F708958CE295E2D8DDC8CF81E595E2D4DD8ACF85E4E3
:205CE00095E2D0DD58CF82E395E2CCDD3DCF80E695E20E94631BA8958091880684FD91C01D
:205D000082E08093850628EE33E08091880684FD88C080E090E00196853D44E19407D9F739
:205D20002150310991F78091880684FD13C082E08093850620ED37E08091880684FD0AC02F
:205D400080E090E00196853D44E19407D9F72150310991F78091880684FD5FC082E08093A3
:205D6000850628EE33E08091880684FD56C080E090E00196853D44E19407D9F721503109D5
:205D800091F7A8958091880684FD13C082E08093850628EE33E08091880684FD0AC080E0D8
:205DA00090E00196853D44E19407D9F72150310991F78091880684FD2CC082E0809385064B
:205DC00028EE33E08091880684FD23C080E090E00196853D44E19407D9F72150310991F7AB
:205DE000A8958091880684FD13C082E08093850620E737E18091880684FD0AC080E090E09A
:205E00000196853D44E19407D9F72150310991F7089580E795E236DDE3CF87E695E232DD33
:205E2000B0CF85E495E22EDD7ECF81E08093A60680E28093850685E593E2A8E0B0E00197FC
:205E4000A109B109E1F781E0809386068091880684FD13C082E08093850620E83EE38091D9
:205E6000880684FD0AC080E090E00196853D44E19407D9F72150310991F780E09AE6A8E1F4
:205E8000B0E00197A109B109E1F781E08093A50685E593E2A8E0B0E00197A109B109E1F7B4
:205EA00008958091880684FDDEC082E08093850628EE33E08091880684FDD5C080E090E0D9
:205EC0000196853D44E19407D9F72150310991F78091880684FDC2C082E08093850628EEEE
:205EE00033E08091880684FDB9C080E090E00196853D44E19407D9F72150310991F78091F9
:205F0000880684FDA6C082E08093850628EE33E08091880684FD9DC080E090E00196853D3D
:205F200044E19407D9F72150310991F78091880684FD8AC082E08093850628EE33E08091FA
:205F4000880684FD81C080E090E00196853D44E19407D9F72150310991F780E090E001969E
:205F60008A3228E69207D9F78091880684FD67C082E08093850628EE33E08091880684FD5E
:205F80005EC080E090E00196853D44E19407D9F72150310991F78091880684FD4BC082E06A
:205FA0008093850628EE33E08091880684FD42C080E090E00196853D44E19407D9F72150CE
:205FC000310991F78091880684FD2FC082E08093850628EE33E08091880684FD26C080E061
:205FE00090E00196853D44E19407D9F72150310991F78091880684FD14C082E08093850621
:2060000028EE33E08091880684FD0BC080E090E00196853D44E19407D9F72150310991F780
:20602000089560E080EA9AE0ADC860E080EA9AE0A9D8DFCF62E080EA9AE0A4D8C3CF61EA58
:2060400080EA9AE09FD8A7CF60E080EA9AE09AD884CF61E080EA9AE095D868CF62E080EA11
:206060009AE090D84CCF61EA80EA9AE08BD830CF86E295E20E94631B8091880684FD13C0A0
:2060800082E08093850620ED37E08091880684FD0AC080E090E00196853D44E19407D9F739
:2060A0002150310991F78091880684FD4BC082E08093850628EE33E08091880684FD42C037
:2060C00080E090E00196853D44E19407D9F72150310991F791E09093850680E280938606B4
:2060E0009093A6068093850685E593E2A8E0B0E00197A109B109E1F781E080938606809157
:20610000880684FD13C082E08093850620E83EE38091880684FD0AC080E090E00196853D61
:2061200044E19407D9F72150310991F78AEA9BE7ACE1B0E00197A109B109E1F781E0809341
:20614000A50608958CE295E29DDBC4CFE0E8F6E0808586FB882780F991E0892708958091EC
:20616000880684FD13C082E08093850628EE33E08091880684FD0AC080E090E00196853D01
:2061800044E19407D9F72150310991F78091880684FD14C082E08093850628EE33E080910E
:2061A000880684FD0BC080E090E00196853D44E19407D9F72150310991F7089588E895E295
:2061C00061CB8091880684FD15C082E08093850628EE33E08091880684FD0CC080E090E0B9
:2061E0000196853D44E19407D9F72150310991F780E008958EE895E245DB80E0089580916B
:20620000880684FD15C082E08093850628EE33E08091880684FD0CC080E090E00196853D5C
:2062200044E19407D9F72150310991F780E0089588EA95E227DB80E008958091880684FD96
:2062400015C082E08093850628EE33E08091880684FD0CC080E090E00196853D44E194076B
:20626000D9F72150310991F780E0089585EB95E209DB80E008958091880684FD15C082E0FF
:206280008093850628EE33E08091880684FD0CC080E090E00196853D44E19407D9F7215021
:2062A000310991F780E0089582EC95E2EBDA80E0089561E089E790E00E945322FFCF0E94D0
:2062C000511F0E94B71E80910F28909110280196883E23E0920728F480930F28909310287C
:2062E000089510920F28109210280C940B2180913E28823009F44EC090F0843009F45DC000
:206300008730A9F11092092810920A2810920B2810920C2810920D2810920E2808958823E3
:2063200099F0813079F783EF94E08093092890930A2889EF94E080930B2890930C28109209
:206340000D2810920E2808958AE89EE08093092890930A2882E394E180930B2890930C2893
:2063600086E893E180930D2890930E2808958CEC9CE08093092890930A2889EF9CE0809369
:206380000B2890930C2889EF9DE080930D2890930E2808958AEE9AE08093092890930A28B5
:2063A00087E19BE080930B2890930C288BE39CE080930D2890930E28089583E394E1809347
:2063C000092890930A2880EE9AE180930B2890930C2882EC99E180930D2890930E2808958B
:2063E0009FB7F89484E08093AA062FB7F8948093B000E0EAF6E08089887F808B80898160BA
:20640000808B2FBF82E08093A9069FBF0895CF93DF93CDB7DEB7C055D109CDBFDEBF1092BD
:206420003D280E9406210E9434210E94670180E090E001968A3228E69207D9F780E00E9491
:20644000A11D41E060E080E00E94CA1D88E00E94CC048111FBCF0E9415010E94630183E0DD
:206460000E9433016C010E949E02B82E4FDBE5DA70DA0E9401218FE591E30E941C1F0E9453
:20648000E11A0E94571F809142200E94330180934C2090934D20809344209093452080937F
:2064A000482090934920809143200E94330180934E2090934F208093462090934720809375
:2064C0004A2090934B20809150200E94330180935A2090935B208093522090935320809314
:2064E000562090935720809151200E94330180935C2090935D2080935420909355208093D3
:20650000582090935920109235281092362810923728109238281092392881E080933A288C
:206520000E944D1F5DDF0E942F0387E08093A200789480911628881F8827881F9091172869
:206540009F73990F982B81E009F480E00E94671D80933C280E949C0A682E0E94F309C7DE42
:2065600080911728829586958695837090911828990F990F982B81E009F080E00E94A11DFD
:206580008FEC95E20E94C71F88EE95E20E94C71F8FEC95E20E94631B80913E2890E08B5E2A
:2065A000974DA5DBA895E0910928F0910A28309709F44AC48EE398E209954DE050E060E0ED
:2065C00070E0CE0101960E94CE1E0E94062146E050E060E070E0CE01875B9F4F0E94CE1E9B
:2065E0000E94062146E050E060E070E0CE018F5B9F4F0E94CE1E0E94062148EE53E060E045
:2066000070E0CE0189960E94CE1E0E94062140E65AEE60E070E0CE0181960E94CE1E0E94D1
:20662000062148EE53E060E070E0CE0149960E94CE1E0E94062140EE53E964E070E0CE0168
:2066400041960E94CE1E0E940621CE01C9960E94161F8CE296E20E94631B912C712C812CFA
:20666000E3EEF1E04490AA24A39492E0592ECE0101960E94E71E882309F467C00E94062101
:2066800080E00E942121CE0181960E94E71E811198C2CE0149960E94E71E81114AC2809139
:2066A0003E28823009F45BC2873009F463C2CE01875B9F4F0E94E71E8111B9C0CE018F5BC5
:2066C0009F4F0E94E71E81116DC0CE01C9960E94E71E811106C0CE0141960E94E71E882341
:2066E00091F0CE01C9960E94161F40EE53E964E070E0CE0141960E94CE1E0E949E02B82EBA
:20670000882309F46EC2CE01C1960E94E71E811183C288E00E94CC04182F89E00E94CC0401
:20672000882359F0112349F085E598E5A4E1B0E00197A109B109E1F7B4DB0E94B208CE016E
:2067400001960E94E71E811199CFCE01875B9F4F0E94E71E811192CFCE018F5B9F4F0E947F
:20676000E71E81118BCFCE0181960E94E71E811185CFCE0149960E94E71E81117FCF80916F
:206780004800817F8429809348008091480081608093480078948895809148008E7F809372
:2067A00048006CCF46E050E060E070E0CE018F5B9F4F0E94CE1E809142200E9433018093DF
:2067C0004C2090934D20809143200E94330180934E2090934F20E0910D28F0910E2830973C
:2067E00039F060914C2070914D20AC0180E00995809150200E94330180935A2090935B2078
:20680000809151200E94330180935C2090935D20E0910D28F0910E28309709F456CF6091BA
:206820005A2070915B20AC0181E009954ECF46E050E060E070E0CE01875B9F4F0E94CE1E86
:2068400080910220882309F4BAC280E00E94CC048111BAC2809101208F5F8093012080919C
:206860000620882309F409C281E00E94CC04811109C2809105208F5F8093052080910A20B8
:20688000882309F405C282E00E94CC04811105C2809109208F5F8093092080910E2088230E
:2068A00009F401C283E00E94CC04811101C280910D208F5F80930D2080911220882309F497
:2068C000FDC184E00E94CC048111FDC1809111208F5F8093112080911620882309F4F9C1B7
:2068E00085E00E94CC048111F9C1809115208F5F8093152080911A20882309F4F5C186E0EA
:206900000E94CC048111F5C1809119208F5F8093192080911E20882309F4F1C187E00E9487
